{
  "_format": "hh-sol-artifact-1",
  "contractName": "SageGame",
  "sourceName": "contracts/SageGame.sol",
  "abi": [
    {
      "inputs": [
        {
          "internalType": "string[]",
          "name": "sageNames",
          "type": "string[]"
        },
        {
          "internalType": "string[]",
          "name": "sageImageURIs",
          "type": "string[]"
        },
        {
          "internalType": "uint16[]",
          "name": "sageHp",
          "type": "uint16[]"
        },
        {
          "internalType": "uint16[]",
          "name": "sageAttackDamage",
          "type": "uint16[]"
        }
      ],
      "stateMutability": "nonpayable",
      "type": "constructor"
    },
    {
      "anonymous": false,
      "inputs": [
        {
          "indexed": true,
          "internalType": "address",
          "name": "owner",
          "type": "address"
        },
        {
          "indexed": true,
          "internalType": "address",
          "name": "approved",
          "type": "address"
        },
        {
          "indexed": true,
          "internalType": "uint256",
          "name": "tokenId",
          "type": "uint256"
        }
      ],
      "name": "Approval",
      "type": "event"
    },
    {
      "anonymous": false,
      "inputs": [
        {
          "indexed": true,
          "internalType": "address",
          "name": "owner",
          "type": "address"
        },
        {
          "indexed": true,
          "internalType": "address",
          "name": "operator",
          "type": "address"
        },
        {
          "indexed": false,
          "internalType": "bool",
          "name": "approved",
          "type": "bool"
        }
      ],
      "name": "ApprovalForAll",
      "type": "event"
    },
    {
      "anonymous": false,
      "inputs": [
        {
          "indexed": false,
          "internalType": "uint256",
          "name": "newBossHp",
          "type": "uint256"
        },
        {
          "indexed": false,
          "internalType": "uint256",
          "name": "newPlayerHp",
          "type": "uint256"
        }
      ],
      "name": "AttackComplete",
      "type": "event"
    },
    {
      "anonymous": false,
      "inputs": [
        {
          "indexed": false,
          "internalType": "address",
          "name": "sender",
          "type": "address"
        },
        {
          "indexed": false,
          "internalType": "uint256",
          "name": "tokenId",
          "type": "uint256"
        },
        {
          "indexed": false,
          "internalType": "uint256",
          "name": "sageIndex",
          "type": "uint256"
        }
      ],
      "name": "SageNFTMinted",
      "type": "event"
    },
    {
      "anonymous": false,
      "inputs": [
        {
          "indexed": true,
          "internalType": "address",
          "name": "from",
          "type": "address"
        },
        {
          "indexed": true,
          "internalType": "address",
          "name": "to",
          "type": "address"
        },
        {
          "indexed": true,
          "internalType": "uint256",
          "name": "tokenId",
          "type": "uint256"
        }
      ],
      "name": "Transfer",
      "type": "event"
    },
    {
      "inputs": [],
      "name": "activeSageBoss",
      "outputs": [
        {
          "internalType": "string",
          "name": "name",
          "type": "string"
        },
        {
          "internalType": "string",
          "name": "imageURI",
          "type": "string"
        },
        {
          "internalType": "uint256",
          "name": "hp",
          "type": "uint256"
        },
        {
          "internalType": "uint256",
          "name": "maxHp",
          "type": "uint256"
        },
        {
          "internalType": "uint256",
          "name": "attackDamage",
          "type": "uint256"
        }
      ],
      "stateMutability": "view",
      "type": "function"
    },
    {
      "inputs": [
        {
          "internalType": "address",
          "name": "to",
          "type": "address"
        },
        {
          "internalType": "uint256",
          "name": "tokenId",
          "type": "uint256"
        }
      ],
      "name": "approve",
      "outputs": [],
      "stateMutability": "nonpayable",
      "type": "function"
    },
    {
      "inputs": [],
      "name": "attackBoss",
      "outputs": [],
      "stateMutability": "nonpayable",
      "type": "function"
    },
    {
      "inputs": [
        {
          "internalType": "address",
          "name": "owner",
          "type": "address"
        }
      ],
      "name": "balanceOf",
      "outputs": [
        {
          "internalType": "uint256",
          "name": "",
          "type": "uint256"
        }
      ],
      "stateMutability": "view",
      "type": "function"
    },
    {
      "inputs": [],
      "name": "checkIfUserHasNFT",
      "outputs": [
        {
          "components": [
            {
              "internalType": "uint256",
              "name": "hp",
              "type": "uint256"
            },
            {
              "internalType": "uint256",
              "name": "maxHp",
              "type": "uint256"
            },
            {
              "internalType": "uint256",
              "name": "attackDamage",
              "type": "uint256"
            },
            {
              "internalType": "uint256",
              "name": "sageIndex",
              "type": "uint256"
            },
            {
              "internalType": "string",
              "name": "name",
              "type": "string"
            },
            {
              "internalType": "string",
              "name": "imageURI",
              "type": "string"
            }
          ],
          "internalType": "struct SageGame.SageAttributes",
          "name": "",
          "type": "tuple"
        }
      ],
      "stateMutability": "view",
      "type": "function"
    },
    {
      "inputs": [],
      "name": "getActiveSageBoss",
      "outputs": [
        {
          "components": [
            {
              "internalType": "string",
              "name": "name",
              "type": "string"
            },
            {
              "internalType": "string",
              "name": "imageURI",
              "type": "string"
            },
            {
              "internalType": "uint256",
              "name": "hp",
              "type": "uint256"
            },
            {
              "internalType": "uint256",
              "name": "maxHp",
              "type": "uint256"
            },
            {
              "internalType": "uint256",
              "name": "attackDamage",
              "type": "uint256"
            }
          ],
          "internalType": "struct SageGame.SageBoss",
          "name": "",
          "type": "tuple"
        }
      ],
      "stateMutability": "view",
      "type": "function"
    },
    {
      "inputs": [],
      "name": "getAllDefaultSages",
      "outputs": [
        {
          "components": [
            {
              "internalType": "uint256",
              "name": "hp",
              "type": "uint256"
            },
            {
              "internalType": "uint256",
              "name": "maxHp",
              "type": "uint256"
            },
            {
              "internalType": "uint256",
              "name": "attackDamage",
              "type": "uint256"
            },
            {
              "internalType": "uint256",
              "name": "sageIndex",
              "type": "uint256"
            },
            {
              "internalType": "string",
              "name": "name",
              "type": "string"
            },
            {
              "internalType": "string",
              "name": "imageURI",
              "type": "string"
            }
          ],
          "internalType": "struct SageGame.SageAttributes[]",
          "name": "",
          "type": "tuple[]"
        }
      ],
      "stateMutability": "view",
      "type": "function"
    },
    {
      "inputs": [
        {
          "internalType": "uint256",
          "name": "tokenId",
          "type": "uint256"
        }
      ],
      "name": "getApproved",
      "outputs": [
        {
          "internalType": "address",
          "name": "",
          "type": "address"
        }
      ],
      "stateMutability": "view",
      "type": "function"
    },
    {
      "inputs": [
        {
          "internalType": "address",
          "name": "owner",
          "type": "address"
        },
        {
          "internalType": "address",
          "name": "operator",
          "type": "address"
        }
      ],
      "name": "isApprovedForAll",
      "outputs": [
        {
          "internalType": "bool",
          "name": "",
          "type": "bool"
        }
      ],
      "stateMutability": "view",
      "type": "function"
    },
    {
      "inputs": [
        {
          "internalType": "uint256",
          "name": "_sageIndex",
          "type": "uint256"
        }
      ],
      "name": "mintSageNft",
      "outputs": [],
      "stateMutability": "nonpayable",
      "type": "function"
    },
    {
      "inputs": [],
      "name": "name",
      "outputs": [
        {
          "internalType": "string",
          "name": "",
          "type": "string"
        }
      ],
      "stateMutability": "view",
      "type": "function"
    },
    {
      "inputs": [
        {
          "internalType": "uint256",
          "name": "tokenId",
          "type": "uint256"
        }
      ],
      "name": "ownerOf",
      "outputs": [
        {
          "internalType": "address",
          "name": "",
          "type": "address"
        }
      ],
      "stateMutability": "view",
      "type": "function"
    },
    {
      "inputs": [
        {
          "internalType": "address",
          "name": "from",
          "type": "address"
        },
        {
          "internalType": "address",
          "name": "to",
          "type": "address"
        },
        {
          "internalType": "uint256",
          "name": "tokenId",
          "type": "uint256"
        }
      ],
      "name": "safeTransferFrom",
      "outputs": [],
      "stateMutability": "nonpayable",
      "type": "function"
    },
    {
      "inputs": [
        {
          "internalType": "address",
          "name": "from",
          "type": "address"
        },
        {
          "internalType": "address",
          "name": "to",
          "type": "address"
        },
        {
          "internalType": "uint256",
          "name": "tokenId",
          "type": "uint256"
        },
        {
          "internalType": "bytes",
          "name": "_data",
          "type": "bytes"
        }
      ],
      "name": "safeTransferFrom",
      "outputs": [],
      "stateMutability": "nonpayable",
      "type": "function"
    },
    {
      "inputs": [
        {
          "internalType": "uint256",
          "name": "",
          "type": "uint256"
        }
      ],
      "name": "sageIdToAttributes",
      "outputs": [
        {
          "internalType": "uint256",
          "name": "hp",
          "type": "uint256"
        },
        {
          "internalType": "uint256",
          "name": "maxHp",
          "type": "uint256"
        },
        {
          "internalType": "uint256",
          "name": "attackDamage",
          "type": "uint256"
        },
        {
          "internalType": "uint256",
          "name": "sageIndex",
          "type": "uint256"
        },
        {
          "internalType": "string",
          "name": "name",
          "type": "string"
        },
        {
          "internalType": "string",
          "name": "imageURI",
          "type": "string"
        }
      ],
      "stateMutability": "view",
      "type": "function"
    },
    {
      "inputs": [
        {
          "internalType": "address",
          "name": "",
          "type": "address"
        }
      ],
      "name": "sageOwnerToId",
      "outputs": [
        {
          "internalType": "uint256",
          "name": "",
          "type": "uint256"
        }
      ],
      "stateMutability": "view",
      "type": "function"
    },
    {
      "inputs": [
        {
          "internalType": "address",
          "name": "operator",
          "type": "address"
        },
        {
          "internalType": "bool",
          "name": "approved",
          "type": "bool"
        }
      ],
      "name": "setApprovalForAll",
      "outputs": [],
      "stateMutability": "nonpayable",
      "type": "function"
    },
    {
      "inputs": [
        {
          "internalType": "string",
          "name": "bossName",
          "type": "string"
        },
        {
          "internalType": "string",
          "name": "bossImageURI",
          "type": "string"
        },
        {
          "internalType": "uint256",
          "name": "bossHp",
          "type": "uint256"
        },
        {
          "internalType": "uint256",
          "name": "bossAttackDamage",
          "type": "uint256"
        }
      ],
      "name": "spawnBoss",
      "outputs": [],
      "stateMutability": "nonpayable",
      "type": "function"
    },
    {
      "inputs": [
        {
          "internalType": "bytes4",
          "name": "interfaceId",
          "type": "bytes4"
        }
      ],
      "name": "supportsInterface",
      "outputs": [
        {
          "internalType": "bool",
          "name": "",
          "type": "bool"
        }
      ],
      "stateMutability": "view",
      "type": "function"
    },
    {
      "inputs": [],
      "name": "symbol",
      "outputs": [
        {
          "internalType": "string",
          "name": "",
          "type": "string"
        }
      ],
      "stateMutability": "view",
      "type": "function"
    },
    {
      "inputs": [
        {
          "internalType": "uint256",
          "name": "_tokenId",
          "type": "uint256"
        }
      ],
      "name": "tokenURI",
      "outputs": [
        {
          "internalType": "string",
          "name": "",
          "type": "string"
        }
      ],
      "stateMutability": "view",
      "type": "function"
    },
    {
      "inputs": [
        {
          "internalType": "address",
          "name": "from",
          "type": "address"
        },
        {
          "internalType": "address",
          "name": "to",
          "type": "address"
        },
        {
          "internalType": "uint256",
          "name": "tokenId",
          "type": "uint256"
        }
      ],
      "name": "transferFrom",
      "outputs": [],
      "stateMutability": "nonpayable",
      "type": "function"
    }
  ],
  "bytecode": "0x60806040523480156200001157600080fd5b5060405162005926380380620059268339818101604052810190620000379190620008a4565b6040518060400160405280600e81526020017f2d2d546573742053616765732d2d0000000000000000000000000000000000008152506040518060400160405280600781526020017f54535453414745000000000000000000000000000000000000000000000000008152508160009080519060200190620000bb9291906200060c565b508060019080519060200190620000d49291906200060c565b50505060005b8451811015620004ff5760076040518060c001604052808584815181106200012b577f4e487b7100000000000000000000000000000000000000000000000000000000600052603260045260246000fd5b602002602001015161ffff16815260200185848151811062000176577f4e487b7100000000000000000000000000000000000000000000000000000000600052603260045260246000fd5b602002602001015161ffff168152602001848481518110620001c1577f4e487b7100000000000000000000000000000000000000000000000000000000600052603260045260246000fd5b602002602001015161ffff16815260200183815260200187848151811062000212577f4e487b7100000000000000000000000000000000000000000000000000000000600052603260045260246000fd5b6020026020010151815260200186848151811062000259577f4e487b7100000000000000000000000000000000000000000000000000000000600052603260045260246000fd5b60200260200101518152509080600181540180825580915050600190039060005260206000209060060201600090919091909150600082015181600001556020820151816001015560408201518160020155606082015181600301556080820151816004019080519060200190620002d39291906200060c565b5060a0820151816005019080519060200190620002f29291906200060c565b50505060006007828154811062000332577f4e487b7100000000000000000000000000000000000000000000000000000000600052603260045260246000fd5b90600052602060002090600602016040518060c001604052908160008201548152602001600182015481526020016002820154815260200160038201548152602001600482018054620003859062000bac565b80601f0160208091040260200160405190810160405280929190818152602001828054620003b39062000bac565b8015620004045780601f10620003d85761010080835404028352916020019162000404565b820191906000526020600020905b815481529060010190602001808311620003e657829003601f168201915b505050505081526020016005820180546200041f9062000bac565b80601f01602080910402602001604051908101604052809291908181526020018280546200044d9062000bac565b80156200049e5780601f1062000472576101008083540402835291602001916200049e565b820191906000526020600020905b8154815290600101906020018083116200048057829003601f168201915b5050505050815250509050620004e7604051806060016040528060298152602001620058fd60299139826080015183600001518460a001516200052160201b62001dc91760201c565b50600181620004f7919062000b01565b9050620000da565b50620005176006620005cd60201b62001e6b1760201c565b5050505062000cd0565b620005c7848484846040516024016200053e9493929190620009c6565b6040516020818303038152906040527f8d142cdd000000000000000000000000000000000000000000000000000000007bffffffffffffffffffffffffffffffffffffffffffffffffffffffff19166020820180517bffffffffffffffffffffffffffffffffffffffffffffffffffffffff8381831617835250505050620005e360201b60201c565b50505050565b6001816000016000828254019250508190555050565b60008151905060006a636f6e736f6c652e6c6f679050602083016000808483855afa5050505050565b8280546200061a9062000bac565b90600052602060002090601f0160209004810192826200063e57600085556200068a565b82601f106200065957805160ff19168380011785556200068a565b828001600101855582156200068a579182015b82811115620006895782518255916020019190600101906200066c565b5b5090506200069991906200069d565b5090565b5b80821115620006b85760008160009055506001016200069e565b5090565b6000620006d3620006cd8462000a51565b62000a28565b90508083825260208201905082856020860282011115620006f357600080fd5b60005b858110156200074257815167ffffffffffffffff8111156200071757600080fd5b80860162000726898262000860565b85526020850194506020840193505050600181019050620006f6565b5050509392505050565b6000620007636200075d8462000a80565b62000a28565b905080838252602082019050828560208602820111156200078357600080fd5b60005b85811015620007b757816200079c88826200088d565b84526020840193506020830192505060018101905062000786565b5050509392505050565b6000620007d8620007d28462000aaf565b62000a28565b905082815260208101848484011115620007f157600080fd5b620007fe84828562000b76565b509392505050565b600082601f8301126200081857600080fd5b81516200082a848260208601620006bc565b91505092915050565b600082601f8301126200084557600080fd5b8151620008578482602086016200074c565b91505092915050565b600082601f8301126200087257600080fd5b815162000884848260208601620007c1565b91505092915050565b6000815190506200089e8162000cb6565b92915050565b60008060008060808587031215620008bb57600080fd5b600085015167ffffffffffffffff811115620008d657600080fd5b620008e48782880162000806565b945050602085015167ffffffffffffffff8111156200090257600080fd5b620009108782880162000806565b935050604085015167ffffffffffffffff8111156200092e57600080fd5b6200093c8782880162000833565b925050606085015167ffffffffffffffff8111156200095a57600080fd5b620009688782880162000833565b91505092959194509250565b6000620009818262000ae5565b6200098d818562000af0565b93506200099f81856020860162000b76565b620009aa8162000ca5565b840191505092915050565b620009c08162000b6c565b82525050565b60006080820190508181036000830152620009e2818762000974565b90508181036020830152620009f8818662000974565b905062000a096040830185620009b5565b818103606083015262000a1d818462000974565b905095945050505050565b600062000a3462000a47565b905062000a42828262000be2565b919050565b6000604051905090565b600067ffffffffffffffff82111562000a6f5762000a6e62000c76565b5b602082029050602081019050919050565b600067ffffffffffffffff82111562000a9e5762000a9d62000c76565b5b602082029050602081019050919050565b600067ffffffffffffffff82111562000acd5762000acc62000c76565b5b62000ad88262000ca5565b9050602081019050919050565b600081519050919050565b600082825260208201905092915050565b600062000b0e8262000b6c565b915062000b1b8362000b6c565b9250827fffffffffffffffffffffffffffffffffffffffffffffffffffffffffffffffff0382111562000b535762000b5262000c18565b5b828201905092915050565b600061ffff82169050919050565b6000819050919050565b60005b8381101562000b9657808201518184015260208101905062000b79565b8381111562000ba6576000848401525b50505050565b6000600282049050600182168062000bc557607f821691505b6020821081141562000bdc5762000bdb62000c47565b5b50919050565b62000bed8262000ca5565b810181811067ffffffffffffffff8211171562000c0f5762000c0e62000c76565b5b80604052505050565b7f4e487b7100000000000000000000000000000000000000000000000000000000600052601160045260246000fd5b7f4e487b7100000000000000000000000000000000000000000000000000000000600052602260045260246000fd5b7f4e487b7100000000000000000000000000000000000000000000000000000000600052604160045260246000fd5b6000601f19601f8301169050919050565b62000cc18162000b5e565b811462000ccd57600080fd5b50565b614c1d8062000ce06000396000f3fe608060405234801561001057600080fd5b50600436106101425760003560e01c8063803ea818116100b8578063c87b56dd1161007c578063c87b56dd1461038e578063c8cf27f4146103be578063cb63f4a7146103dc578063d4f24c5b146103fa578063e0e32ed814610404578063e985e9c51461042257610142565b8063803ea818146102d357806395d89b4114610303578063a22cb46514610321578063ab6ab6ff1461033d578063b88d4fde1461037257610142565b80631bb2fa861161010a5780631bb2fa86146101fd57806323b872dd1461021957806342842e0e146102355780636352211e14610251578063707df9651461028157806370a08231146102a357610142565b806301ffc9a71461014757806306fdde0314610177578063081812fc14610195578063095ea7b3146101c55780630ae74ce2146101e1575b600080fd5b610161600480360381019061015c9190613270565b610452565b60405161016e9190613b68565b60405180910390f35b61017f610534565b60405161018c9190613b83565b60405180910390f35b6101af60048036038101906101aa9190613355565b6105c6565b6040516101bc9190613aa8565b60405180910390f35b6101df60048036038101906101da9190613234565b61064b565b005b6101fb60048036038101906101f69190613355565b610763565b005b610217600480360381019061021291906132c2565b610b57565b005b610233600480360381019061022e919061312e565b610d24565b005b61024f600480360381019061024a919061312e565b610d84565b005b61026b60048036038101906102669190613355565b610da4565b6040516102789190613aa8565b60405180910390f35b610289610e56565b60405161029a959493929190613c52565b60405180910390f35b6102bd60048036038101906102b891906130c9565b610f8a565b6040516102ca9190613f45565b60405180910390f35b6102ed60048036038101906102e891906130c9565b611042565b6040516102fa9190613f45565b60405180910390f35b61030b61105a565b6040516103189190613b83565b60405180910390f35b61033b600480360381019061033691906131f8565b6110ec565b005b61035760048036038101906103529190613355565b611102565b60405161036996959493929190613f89565b60405180910390f35b61038c6004803603810190610387919061317d565b61124e565b005b6103a860048036038101906103a39190613355565b6112b0565b6040516103b59190613b83565b60405180910390f35b6103c66114cb565b6040516103d39190613f01565b60405180910390f35b6103e46116a3565b6040516103f19190613f23565b60405180910390f35b6104026117ff565b005b61040c611b8a565b6040516104199190613b46565b60405180910390f35b61043c600480360381019061043791906130f2565b611d35565b6040516104499190613b68565b60405180910390f35b60007f80ac58cd000000000000000000000000000000000000000000000000000000007bffffffffffffffffffffffffffffffffffffffffffffffffffffffff1916827bffffffffffffffffffffffffffffffffffffffffffffffffffffffff1916148061051d57507f5b5e139f000000000000000000000000000000000000000000000000000000007bffffffffffffffffffffffffffffffffffffffffffffffffffffffff1916827bffffffffffffffffffffffffffffffffffffffffffffffffffffffff1916145b8061052d575061052c82611e81565b5b9050919050565b606060008054610543906142d7565b80601f016020809104026020016040519081016040528092919081815260200182805461056f906142d7565b80156105bc5780601f10610591576101008083540402835291602001916105bc565b820191906000526020600020905b81548152906001019060200180831161059f57829003601f168201915b5050505050905090565b60006105d182611eeb565b610610576040517f08c379a000000000000000000000000000000000000000000000000000000000815260040161060790613e81565b60405180910390fd5b6004600083815260200190815260200160002060009054906101000a900473ffffffffffffffffffffffffffffffffffffffff169050919050565b600061065682610da4565b90508073ffffffffffffffffffffffffffffffffffffffff168373ffffffffffffffffffffffffffffffffffffffff1614156106c7576040517f08c379a00000000000000000000000000000000000000000000000000000000081526004016106be90613ec1565b60405180910390fd5b8073ffffffffffffffffffffffffffffffffffffffff166106e6611f57565b73ffffffffffffffffffffffffffffffffffffffff16148061071557506107148161070f611f57565b611d35565b5b610754576040517f08c379a000000000000000000000000000000000000000000000000000000000815260040161074b90613e01565b60405180910390fd5b61075e8383611f5f565b505050565b600061076f6006612018565b905061077b3382612026565b6040518060c00160405280600784815481106107c0577f4e487b7100000000000000000000000000000000000000000000000000000000600052603260045260246000fd5b906000526020600020906006020160000154815260200160078481548110610811577f4e487b7100000000000000000000000000000000000000000000000000000000600052603260045260246000fd5b906000526020600020906006020160010154815260200160078481548110610862577f4e487b7100000000000000000000000000000000000000000000000000000000600052603260045260246000fd5b9060005260206000209060060201600201548152602001838152602001600784815481106108b9577f4e487b7100000000000000000000000000000000000000000000000000000000600052603260045260246000fd5b906000526020600020906006020160040180546108d5906142d7565b80601f0160208091040260200160405190810160405280929190818152602001828054610901906142d7565b801561094e5780601f106109235761010080835404028352916020019161094e565b820191906000526020600020905b81548152906001019060200180831161093157829003601f168201915b5050505050815260200160078481548110610992577f4e487b7100000000000000000000000000000000000000000000000000000000600052603260045260246000fd5b906000526020600020906006020160050180546109ae906142d7565b80601f01602080910402602001604051908101604052809291908181526020018280546109da906142d7565b8015610a275780601f106109fc57610100808354040283529160200191610a27565b820191906000526020600020905b815481529060010190602001808311610a0a57829003601f168201915b5050505050815250600d6000838152602001908152602001600020600082015181600001556020820151816001015560408201518160020155606082015181600301556080820151816004019080519060200190610a86929190612e88565b5060a0820151816005019080519060200190610aa3929190612e88565b50905050610aca6040518060600160405280602e8152602001614aec602e91398284612044565b80600e60003373ffffffffffffffffffffffffffffffffffffffff1673ffffffffffffffffffffffffffffffffffffffff16815260200190815260200160002081905550610b186006611e6b565b7fcc4c48dae5c18de6e5a0e3731293108c2b21721b6308fea08aff9e602b812c97338284604051610b4b93929190613b0f565b60405180910390a15050565b6040518060a001604052808581526020018481526020018381526020018381526020018281525060086000820151816000019080519060200190610b9c929190612e88565b506020820151816001019080519060200190610bb9929190612e88565b50604082015181600201556060820151816003015560808201518160040155905050610d1e6040518060600160405280602a8152602001614b82602a913960086000018054610c07906142d7565b80601f0160208091040260200160405190810160405280929190818152602001828054610c33906142d7565b8015610c805780601f10610c5557610100808354040283529160200191610c80565b820191906000526020600020905b815481529060010190602001808311610c6357829003601f168201915b505050505060086002015460086001018054610c9b906142d7565b80601f0160208091040260200160405190810160405280929190818152602001828054610cc7906142d7565b8015610d145780601f10610ce957610100808354040283529160200191610d14565b820191906000526020600020905b815481529060010190602001808311610cf757829003601f168201915b5050505050611dc9565b50505050565b610d35610d2f611f57565b826120e3565b610d74576040517f08c379a0000000000000000000000000000000000000000000000000000000008152600401610d6b90613ee1565b60405180910390fd5b610d7f8383836121c1565b505050565b610d9f8383836040518060200160405280600081525061124e565b505050565b6000806002600084815260200190815260200160002060009054906101000a900473ffffffffffffffffffffffffffffffffffffffff169050600073ffffffffffffffffffffffffffffffffffffffff168173ffffffffffffffffffffffffffffffffffffffff161415610e4d576040517f08c379a0000000000000000000000000000000000000000000000000000000008152600401610e4490613e41565b60405180910390fd5b80915050919050565b6008806000018054610e67906142d7565b80601f0160208091040260200160405190810160405280929190818152602001828054610e93906142d7565b8015610ee05780601f10610eb557610100808354040283529160200191610ee0565b820191906000526020600020905b815481529060010190602001808311610ec357829003601f168201915b505050505090806001018054610ef5906142d7565b80601f0160208091040260200160405190810160405280929190818152602001828054610f21906142d7565b8015610f6e5780601f10610f4357610100808354040283529160200191610f6e565b820191906000526020600020905b815481529060010190602001808311610f5157829003601f168201915b5050505050908060020154908060030154908060040154905085565b60008073ffffffffffffffffffffffffffffffffffffffff168273ffffffffffffffffffffffffffffffffffffffff161415610ffb576040517f08c379a0000000000000000000000000000000000000000000000000000000008152600401610ff290613e21565b60405180910390fd5b600360008373ffffffffffffffffffffffffffffffffffffffff1673ffffffffffffffffffffffffffffffffffffffff168152602001908152602001600020549050919050565b600e6020528060005260406000206000915090505481565b606060018054611069906142d7565b80601f0160208091040260200160405190810160405280929190818152602001828054611095906142d7565b80156110e25780601f106110b7576101008083540402835291602001916110e2565b820191906000526020600020905b8154815290600101906020018083116110c557829003601f168201915b5050505050905090565b6110fe6110f7611f57565b8383612428565b5050565b600d60205280600052604060002060009150905080600001549080600101549080600201549080600301549080600401805461113d906142d7565b80601f0160208091040260200160405190810160405280929190818152602001828054611169906142d7565b80156111b65780601f1061118b576101008083540402835291602001916111b6565b820191906000526020600020905b81548152906001019060200180831161119957829003601f168201915b5050505050908060050180546111cb906142d7565b80601f01602080910402602001604051908101604052809291908181526020018280546111f7906142d7565b80156112445780601f1061121957610100808354040283529160200191611244565b820191906000526020600020905b81548152906001019060200180831161122757829003601f168201915b5050505050905086565b61125f611259611f57565b836120e3565b61129e576040517f08c379a000000000000000000000000000000000000000000000000000000000815260040161129590613ee1565b60405180910390fd5b6112aa84848484612595565b50505050565b60606000600d60008481526020019081526020016000206040518060c00160405290816000820154815260200160018201548152602001600282015481526020016003820154815260200160048201805461130a906142d7565b80601f0160208091040260200160405190810160405280929190818152602001828054611336906142d7565b80156113835780601f1061135857610100808354040283529160200191611383565b820191906000526020600020905b81548152906001019060200180831161136657829003601f168201915b5050505050815260200160058201805461139c906142d7565b80601f01602080910402602001604051908101604052809291908181526020018280546113c8906142d7565b80156114155780601f106113ea57610100808354040283529160200191611415565b820191906000526020600020905b8154815290600101906020018083116113f857829003601f168201915b5050505050815250509050600061142f82600001516125f1565b9050600061144083602001516125f1565b9050600061145184604001516125f1565b905060006114978560800151611466896125f1565b8760a00151878787604051602001611483969594939291906139e1565b60405160208183030381529060405261279e565b90506000816040516020016114ac9190613a86565b6040516020818303038152906040529050809650505050505050919050565b6114d3612f0e565b6000600e60003373ffffffffffffffffffffffffffffffffffffffff1673ffffffffffffffffffffffffffffffffffffffff168152602001908152602001600020549050600081111561169257600d60008281526020019081526020016000206040518060c001604052908160008201548152602001600182015481526020016002820154815260200160038201548152602001600482018054611576906142d7565b80601f01602080910402602001604051908101604052809291908181526020018280546115a2906142d7565b80156115ef5780601f106115c4576101008083540402835291602001916115ef565b820191906000526020600020905b8154815290600101906020018083116115d257829003601f168201915b50505050508152602001600582018054611608906142d7565b80601f0160208091040260200160405190810160405280929190818152602001828054611634906142d7565b80156116815780601f1061165657610100808354040283529160200191611681565b820191906000526020600020905b81548152906001019060200180831161166457829003601f168201915b5050505050815250509150506116a0565b61169a612f0e565b80925050505b90565b6116ab612f44565b60086040518060a00160405290816000820180546116c8906142d7565b80601f01602080910402602001604051908101604052809291908181526020018280546116f4906142d7565b80156117415780601f1061171657610100808354040283529160200191611741565b820191906000526020600020905b81548152906001019060200180831161172457829003601f168201915b5050505050815260200160018201805461175a906142d7565b80601f0160208091040260200160405190810160405280929190818152602001828054611786906142d7565b80156117d35780601f106117a8576101008083540402835291602001916117d3565b820191906000526020600020905b8154815290600101906020018083116117b657829003601f168201915b505050505081526020016002820154815260200160038201548152602001600482015481525050905090565b6000600e60003373ffffffffffffffffffffffffffffffffffffffff1673ffffffffffffffffffffffffffffffffffffffff1681526020019081526020016000205490506000600d600083815260200190815260200160002090506119126040518060600160405280603c8152602001614bac603c9139826004018054611885906142d7565b80601f01602080910402602001604051908101604052809291908181526020018280546118b1906142d7565b80156118fe5780601f106118d3576101008083540402835291602001916118fe565b820191906000526020600020905b8154815290600101906020018083116118e157829003601f168201915b505050505083600001548460020154612928565b6119ea6040518060400160405280601b81526020017f426f73732025732068617320257320485020616e6420257320414400000000008152506008600001805461195b906142d7565b80601f0160208091040260200160405190810160405280929190818152602001828054611987906142d7565b80156119d45780601f106119a9576101008083540402835291602001916119d4565b820191906000526020600020905b8154815290600101906020018083116119b757829003601f168201915b5050505050600860020154600860040154612928565b6000816000015411611a31576040517f08c379a0000000000000000000000000000000000000000000000000000000008152600401611a2890613ea1565b60405180910390fd5b600060086002015411611a79576040517f08c379a0000000000000000000000000000000000000000000000000000000008152600401611a7090613d21565b60405180910390fd5b80600201546008600201541015611a9a576000600860020181905550611ab9565b8060020154600860020154611aaf91906141ed565b6008600201819055505b60086004015481600001541015611ad95760008160000181905550611af7565b6008600401548160000154611aee91906141ed565b81600001819055505b611b1e604051806060016040528060258152602001614ac7602591396008600201546129ca565b611b44604051806060016040528060288152602001614b5a6028913982600001546129ca565b7f838ab28464562786a6c4ab2311964b82fa60bd9b14aa7e856af1f3f18d41a4146008600201548260000154604051611b7e929190613f60565b60405180910390a15050565b60606007805480602002602001604051908101604052809291908181526020016000905b82821015611d2c57838290600052602060002090600602016040518060c001604052908160008201548152602001600182015481526020016002820154815260200160038201548152602001600482018054611c09906142d7565b80601f0160208091040260200160405190810160405280929190818152602001828054611c35906142d7565b8015611c825780601f10611c5757610100808354040283529160200191611c82565b820191906000526020600020905b815481529060010190602001808311611c6557829003601f168201915b50505050508152602001600582018054611c9b906142d7565b80601f0160208091040260200160405190810160405280929190818152602001828054611cc7906142d7565b8015611d145780601f10611ce957610100808354040283529160200191611d14565b820191906000526020600020905b815481529060010190602001808311611cf757829003601f168201915b50505050508152505081526020019060010190611bae565b50505050905090565b6000600560008473ffffffffffffffffffffffffffffffffffffffff1673ffffffffffffffffffffffffffffffffffffffff16815260200190815260200160002060008373ffffffffffffffffffffffffffffffffffffffff1673ffffffffffffffffffffffffffffffffffffffff16815260200190815260200160002060009054906101000a900460ff16905092915050565b611e6584848484604051602401611de39493929190613ba5565b6040516020818303038152906040527f8d142cdd000000000000000000000000000000000000000000000000000000007bffffffffffffffffffffffffffffffffffffffffffffffffffffffff19166020820180517bffffffffffffffffffffffffffffffffffffffffffffffffffffffff8381831617835250505050612a66565b50505050565b6001816000016000828254019250508190555050565b60007f01ffc9a7000000000000000000000000000000000000000000000000000000007bffffffffffffffffffffffffffffffffffffffffffffffffffffffff1916827bffffffffffffffffffffffffffffffffffffffffffffffffffffffff1916149050919050565b60008073ffffffffffffffffffffffffffffffffffffffff166002600084815260200190815260200160002060009054906101000a900473ffffffffffffffffffffffffffffffffffffffff1673ffffffffffffffffffffffffffffffffffffffff1614159050919050565b600033905090565b816004600083815260200190815260200160002060006101000a81548173ffffffffffffffffffffffffffffffffffffffff021916908373ffffffffffffffffffffffffffffffffffffffff160217905550808273ffffffffffffffffffffffffffffffffffffffff16611fd283610da4565b73ffffffffffffffffffffffffffffffffffffffff167f8c5be1e5ebec7d5bd14f71427d1e84f3dd0314c0f7b2291e5b200ac8c7c3b92560405160405180910390a45050565b600081600001549050919050565b612040828260405180602001604052806000815250612a8f565b5050565b6120de83838360405160240161205c93929190613ce3565b6040516020818303038152906040527f969cdd03000000000000000000000000000000000000000000000000000000007bffffffffffffffffffffffffffffffffffffffffffffffffffffffff19166020820180517bffffffffffffffffffffffffffffffffffffffffffffffffffffffff8381831617835250505050612a66565b505050565b60006120ee82611eeb565b61212d576040517f08c379a000000000000000000000000000000000000000000000000000000000815260040161212490613de1565b60405180910390fd5b600061213883610da4565b90508073ffffffffffffffffffffffffffffffffffffffff168473ffffffffffffffffffffffffffffffffffffffff1614806121a757508373ffffffffffffffffffffffffffffffffffffffff1661218f846105c6565b73ffffffffffffffffffffffffffffffffffffffff16145b806121b857506121b78185611d35565b5b91505092915050565b8273ffffffffffffffffffffffffffffffffffffffff166121e182610da4565b73ffffffffffffffffffffffffffffffffffffffff1614612237576040517f08c379a000000000000000000000000000000000000000000000000000000000815260040161222e90613d61565b60405180910390fd5b600073ffffffffffffffffffffffffffffffffffffffff168273ffffffffffffffffffffffffffffffffffffffff1614156122a7576040517f08c379a000000000000000000000000000000000000000000000000000000000815260040161229e90613da1565b60405180910390fd5b6122b2838383612aea565b6122bd600082611f5f565b6001600360008573ffffffffffffffffffffffffffffffffffffffff1673ffffffffffffffffffffffffffffffffffffffff168152602001908152602001600020600082825461230d91906141ed565b925050819055506001600360008473ffffffffffffffffffffffffffffffffffffffff1673ffffffffffffffffffffffffffffffffffffffff1681526020019081526020016000206000828254612364919061410c565b92505081905550816002600083815260200190815260200160002060006101000a81548173ffffffffffffffffffffffffffffffffffffffff021916908373ffffffffffffffffffffffffffffffffffffffff160217905550808273ffffffffffffffffffffffffffffffffffffffff168473ffffffffffffffffffffffffffffffffffffffff167fddf252ad1be2c89b69c2b068fc378daa952ba7f163c4a11628f55a4df523b3ef60405160405180910390a4612423838383612aef565b505050565b8173ffffffffffffffffffffffffffffffffffffffff168373ffffffffffffffffffffffffffffffffffffffff161415612497576040517f08c379a000000000000000000000000000000000000000000000000000000000815260040161248e90613dc1565b60405180910390fd5b80600560008573ffffffffffffffffffffffffffffffffffffffff1673ffffffffffffffffffffffffffffffffffffffff16815260200190815260200160002060008473ffffffffffffffffffffffffffffffffffffffff1673ffffffffffffffffffffffffffffffffffffffff16815260200190815260200160002060006101000a81548160ff0219169083151502179055508173ffffffffffffffffffffffffffffffffffffffff168373ffffffffffffffffffffffffffffffffffffffff167f17307eab39ab6107e8899845ad3d59bd9653f200f220920489ca2b5937696c31836040516125889190613b68565b60405180910390a3505050565b6125a08484846121c1565b6125ac84848484612af4565b6125eb576040517f08c379a00000000000000000000000000000000000000000000000000000000081526004016125e290613d41565b60405180910390fd5b50505050565b60606000821415612639576040518060400160405280600181526020017f30000000000000000000000000000000000000000000000000000000000000008152509050612799565b600082905060005b6000821461266b5780806126549061433a565b915050600a826126649190614162565b9150612641565b60008167ffffffffffffffff8111156126ad577f4e487b7100000000000000000000000000000000000000000000000000000000600052604160045260246000fd5b6040519080825280601f01601f1916602001820160405280156126df5781602001600182028036833780820191505090505b5090505b60008514612792576001826126f891906141ed565b9150600a856127079190614383565b6030612713919061410c565b60f81b81838151811061274f577f4e487b7100000000000000000000000000000000000000000000000000000000600052603260045260246000fd5b60200101907effffffffffffffffffffffffffffffffffffffffffffffffffffffffffffff1916908160001a905350600a8561278b9190614162565b94506126e3565b8093505050505b919050565b60606000825114156127c157604051806020016040528060008152509050612923565b6000604051806060016040528060408152602001614b1a60409139905060006003600285516127f0919061410c565b6127fa9190614162565b60046128069190614193565b67ffffffffffffffff811115612845577f4e487b7100000000000000000000000000000000000000000000000000000000600052604160045260246000fd5b6040519080825280601f01601f1916602001820160405280156128775781602001600182028036833780820191505090505b509050600182016020820185865187015b808210156128e3576003820191508151603f8160121c168501518453600184019350603f81600c1c168501518453600184019350603f8160061c168501518453600184019350603f8116850151845360018401935050612888565b50506003865106600181146128ff57600281146129125761291a565b603d6001830353603d600283035361291a565b603d60018303535b50505080925050505b919050565b6129c4848484846040516024016129429493929190613bff565b6040516020818303038152906040527fd5cf17d0000000000000000000000000000000000000000000000000000000007bffffffffffffffffffffffffffffffffffffffffffffffffffffffff19166020820180517bffffffffffffffffffffffffffffffffffffffffffffffffffffffff8381831617835250505050612a66565b50505050565b612a6282826040516024016129e0929190613cb3565b6040516020818303038152906040527f9710a9d0000000000000000000000000000000000000000000000000000000007bffffffffffffffffffffffffffffffffffffffffffffffffffffffff19166020820180517bffffffffffffffffffffffffffffffffffffffffffffffffffffffff8381831617835250505050612a66565b5050565b60008151905060006a636f6e736f6c652e6c6f679050602083016000808483855afa5050505050565b612a998383612c8b565b612aa66000848484612af4565b612ae5576040517f08c379a0000000000000000000000000000000000000000000000000000000008152600401612adc90613d41565b60405180910390fd5b505050565b505050565b505050565b6000612b158473ffffffffffffffffffffffffffffffffffffffff16612e65565b15612c7e578373ffffffffffffffffffffffffffffffffffffffff1663150b7a02612b3e611f57565b8786866040518563ffffffff1660e01b8152600401612b609493929190613ac3565b602060405180830381600087803b158015612b7a57600080fd5b505af1925050508015612bab57506040513d601f19601f82011682018060405250810190612ba89190613299565b60015b612c2e573d8060008114612bdb576040519150601f19603f3d011682016040523d82523d6000602084013e612be0565b606091505b50600081511415612c26576040517f08c379a0000000000000000000000000000000000000000000000000000000008152600401612c1d90613d41565b60405180910390fd5b805181602001fd5b63150b7a0260e01b7bffffffffffffffffffffffffffffffffffffffffffffffffffffffff1916817bffffffffffffffffffffffffffffffffffffffffffffffffffffffff191614915050612c83565b600190505b949350505050565b600073ffffffffffffffffffffffffffffffffffffffff168273ffffffffffffffffffffffffffffffffffffffff161415612cfb576040517f08c379a0000000000000000000000000000000000000000000000000000000008152600401612cf290613e61565b60405180910390fd5b612d0481611eeb565b15612d44576040517f08c379a0000000000000000000000000000000000000000000000000000000008152600401612d3b90613d81565b60405180910390fd5b612d5060008383612aea565b6001600360008473ffffffffffffffffffffffffffffffffffffffff1673ffffffffffffffffffffffffffffffffffffffff1681526020019081526020016000206000828254612da0919061410c565b92505081905550816002600083815260200190815260200160002060006101000a81548173ffffffffffffffffffffffffffffffffffffffff021916908373ffffffffffffffffffffffffffffffffffffffff160217905550808273ffffffffffffffffffffffffffffffffffffffff16600073ffffffffffffffffffffffffffffffffffffffff167fddf252ad1be2c89b69c2b068fc378daa952ba7f163c4a11628f55a4df523b3ef60405160405180910390a4612e6160008383612aef565b5050565b6000808273ffffffffffffffffffffffffffffffffffffffff163b119050919050565b828054612e94906142d7565b90600052602060002090601f016020900481019282612eb65760008555612efd565b82601f10612ecf57805160ff1916838001178555612efd565b82800160010185558215612efd579182015b82811115612efc578251825591602001919060010190612ee1565b5b509050612f0a9190612f73565b5090565b6040518060c001604052806000815260200160008152602001600081526020016000815260200160608152602001606081525090565b6040518060a0016040528060608152602001606081526020016000815260200160008152602001600081525090565b5b80821115612f8c576000816000905550600101612f74565b5090565b6000612fa3612f9e8461401d565b613ff8565b905082815260208101848484011115612fbb57600080fd5b612fc6848285614295565b509392505050565b6000612fe1612fdc8461404e565b613ff8565b905082815260208101848484011115612ff957600080fd5b613004848285614295565b509392505050565b60008135905061301b81614a6a565b92915050565b60008135905061303081614a81565b92915050565b60008135905061304581614a98565b92915050565b60008151905061305a81614a98565b92915050565b600082601f83011261307157600080fd5b8135613081848260208601612f90565b91505092915050565b600082601f83011261309b57600080fd5b81356130ab848260208601612fce565b91505092915050565b6000813590506130c381614aaf565b92915050565b6000602082840312156130db57600080fd5b60006130e98482850161300c565b91505092915050565b6000806040838503121561310557600080fd5b60006131138582860161300c565b92505060206131248582860161300c565b9150509250929050565b60008060006060848603121561314357600080fd5b60006131518682870161300c565b93505060206131628682870161300c565b9250506040613173868287016130b4565b9150509250925092565b6000806000806080858703121561319357600080fd5b60006131a18782880161300c565b94505060206131b28782880161300c565b93505060406131c3878288016130b4565b925050606085013567ffffffffffffffff8111156131e057600080fd5b6131ec87828801613060565b91505092959194509250565b6000806040838503121561320b57600080fd5b60006132198582860161300c565b925050602061322a85828601613021565b9150509250929050565b6000806040838503121561324757600080fd5b60006132558582860161300c565b9250506020613266858286016130b4565b9150509250929050565b60006020828403121561328257600080fd5b600061329084828501613036565b91505092915050565b6000602082840312156132ab57600080fd5b60006132b98482850161304b565b91505092915050565b600080600080608085870312156132d857600080fd5b600085013567ffffffffffffffff8111156132f257600080fd5b6132fe8782880161308a565b945050602085013567ffffffffffffffff81111561331b57600080fd5b6133278782880161308a565b9350506040613338878288016130b4565b9250506060613349878288016130b4565b91505092959194509250565b60006020828403121561336757600080fd5b6000613375848285016130b4565b91505092915050565b600061338a8383613826565b905092915050565b61339b81614221565b82525050565b60006133ac8261408f565b6133b681856140bd565b9350836020820285016133c88561407f565b8060005b8581101561340457848403895281516133e5858261337e565b94506133f0836140b0565b925060208a019950506001810190506133cc565b50829750879550505050505092915050565b61341f81614233565b82525050565b60006134308261409a565b61343a81856140ce565b935061344a8185602086016142a4565b61345381614470565b840191505092915050565b6000613469826140a5565b61347381856140df565b93506134838185602086016142a4565b61348c81614470565b840191505092915050565b60006134a2826140a5565b6134ac81856140f0565b93506134bc8185602086016142a4565b6134c581614470565b840191505092915050565b60006134db826140a5565b6134e58185614101565b93506134f58185602086016142a4565b80840191505092915050565b600061350e600b83614101565b915061351982614481565b600b82019050919050565b60006135316028836140f0565b915061353c826144aa565b604082019050919050565b60006135546032836140f0565b915061355f826144f9565b604082019050919050565b60006135776025836140f0565b915061358282614548565b604082019050919050565b600061359a601c836140f0565b91506135a582614597565b602082019050919050565b60006135bd600e83614101565b91506135c8826145c0565b600e82019050919050565b60006135e06024836140f0565b91506135eb826145e9565b604082019050919050565b60006136036019836140f0565b915061360e82614638565b602082019050919050565b6000613626602c836140f0565b915061363182614661565b604082019050919050565b60006136496038836140f0565b9150613654826146b0565b604082019050919050565b600061366c602a836140f0565b9150613677826146ff565b604082019050919050565b600061368f6029836140f0565b915061369a8261474e565b604082019050919050565b60006136b2600483614101565b91506136bd8261479d565b600482019050919050565b60006136d56020836140f0565b91506136e0826147c6565b602082019050919050565b60006136f8604883614101565b9150613703826147ef565b604882019050919050565b600061371b602c836140f0565b915061372682614864565b604082019050919050565b600061373e600a83614101565b9150613749826148b3565b600a82019050919050565b60006137616020836140f0565b915061376c826148dc565b602082019050919050565b60006137846021836140f0565b915061378f82614905565b604082019050919050565b60006137a7601d83614101565b91506137b282614954565b601d82019050919050565b60006137ca6031836140f0565b91506137d58261497d565b604082019050919050565b60006137ed603d83614101565b91506137f8826149cc565b603d82019050919050565b6000613810602d83614101565b915061381b82614a1b565b602d82019050919050565b600060c08301600083015161383e60008601826139c3565b50602083015161385160208601826139c3565b50604083015161386460408601826139c3565b50606083015161387760608601826139c3565b506080830151848203608086015261388f828261345e565b91505060a083015184820360a08601526138a9828261345e565b9150508091505092915050565b600060c0830160008301516138ce60008601826139c3565b5060208301516138e160208601826139c3565b5060408301516138f460408601826139c3565b50606083015161390760608601826139c3565b506080830151848203608086015261391f828261345e565b91505060a083015184820360a0860152613939828261345e565b9150508091505092915050565b600060a0830160008301518482036000860152613963828261345e565b9150506020830151848203602086015261397d828261345e565b915050604083015161399260408601826139c3565b5060608301516139a560608601826139c3565b5060808301516139b860808601826139c3565b508091505092915050565b6139cc8161428b565b82525050565b6139db8161428b565b82525050565b60006139ec82613731565b91506139f882896134d0565b9150613a0382613501565b9150613a0f82886134d0565b9150613a1a826136eb565b9150613a2682876134d0565b9150613a31826137e0565b9150613a3d82866134d0565b9150613a48826135b0565b9150613a5482856134d0565b9150613a5f82613803565b9150613a6b82846134d0565b9150613a76826136a5565b9150819050979650505050505050565b6000613a918261379a565b9150613a9d82846134d0565b915081905092915050565b6000602082019050613abd6000830184613392565b92915050565b6000608082019050613ad86000830187613392565b613ae56020830186613392565b613af260408301856139d2565b8181036060830152613b048184613425565b905095945050505050565b6000606082019050613b246000830186613392565b613b3160208301856139d2565b613b3e60408301846139d2565b949350505050565b60006020820190508181036000830152613b6081846133a1565b905092915050565b6000602082019050613b7d6000830184613416565b92915050565b60006020820190508181036000830152613b9d8184613497565b905092915050565b60006080820190508181036000830152613bbf8187613497565b90508181036020830152613bd38186613497565b9050613be260408301856139d2565b8181036060830152613bf48184613497565b905095945050505050565b60006080820190508181036000830152613c198187613497565b90508181036020830152613c2d8186613497565b9050613c3c60408301856139d2565b613c4960608301846139d2565b95945050505050565b600060a0820190508181036000830152613c6c8188613497565b90508181036020830152613c808187613497565b9050613c8f60408301866139d2565b613c9c60608301856139d2565b613ca960808301846139d2565b9695505050505050565b60006040820190508181036000830152613ccd8185613497565b9050613cdc60208301846139d2565b9392505050565b60006060820190508181036000830152613cfd8186613497565b9050613d0c60208301856139d2565b613d1960408301846139d2565b949350505050565b60006020820190508181036000830152613d3a81613524565b9050919050565b60006020820190508181036000830152613d5a81613547565b9050919050565b60006020820190508181036000830152613d7a8161356a565b9050919050565b60006020820190508181036000830152613d9a8161358d565b9050919050565b60006020820190508181036000830152613dba816135d3565b9050919050565b60006020820190508181036000830152613dda816135f6565b9050919050565b60006020820190508181036000830152613dfa81613619565b9050919050565b60006020820190508181036000830152613e1a8161363c565b9050919050565b60006020820190508181036000830152613e3a8161365f565b9050919050565b60006020820190508181036000830152613e5a81613682565b9050919050565b60006020820190508181036000830152613e7a816136c8565b9050919050565b60006020820190508181036000830152613e9a8161370e565b9050919050565b60006020820190508181036000830152613eba81613754565b9050919050565b60006020820190508181036000830152613eda81613777565b9050919050565b60006020820190508181036000830152613efa816137bd565b9050919050565b60006020820190508181036000830152613f1b81846138b6565b905092915050565b60006020820190508181036000830152613f3d8184613946565b905092915050565b6000602082019050613f5a60008301846139d2565b92915050565b6000604082019050613f7560008301856139d2565b613f8260208301846139d2565b9392505050565b600060c082019050613f9e60008301896139d2565b613fab60208301886139d2565b613fb860408301876139d2565b613fc560608301866139d2565b8181036080830152613fd78185613497565b905081810360a0830152613feb8184613497565b9050979650505050505050565b6000614002614013565b905061400e8282614309565b919050565b6000604051905090565b600067ffffffffffffffff82111561403857614037614441565b5b61404182614470565b9050602081019050919050565b600067ffffffffffffffff82111561406957614068614441565b5b61407282614470565b9050602081019050919050565b6000819050602082019050919050565b600081519050919050565b600081519050919050565b600081519050919050565b6000602082019050919050565b600082825260208201905092915050565b600082825260208201905092915050565b600082825260208201905092915050565b600082825260208201905092915050565b600081905092915050565b60006141178261428b565b91506141228361428b565b9250827fffffffffffffffffffffffffffffffffffffffffffffffffffffffffffffffff03821115614157576141566143b4565b5b828201905092915050565b600061416d8261428b565b91506141788361428b565b925082614188576141876143e3565b5b828204905092915050565b600061419e8261428b565b91506141a98361428b565b9250817fffffffffffffffffffffffffffffffffffffffffffffffffffffffffffffffff04831182151516156141e2576141e16143b4565b5b828202905092915050565b60006141f88261428b565b91506142038361428b565b925082821015614216576142156143b4565b5b828203905092915050565b600061422c8261426b565b9050919050565b60008115159050919050565b60007fffffffff0000000000000000000000000000000000000000000000000000000082169050919050565b600073ffffffffffffffffffffffffffffffffffffffff82169050919050565b6000819050919050565b82818337600083830152505050565b60005b838110156142c25780820151818401526020810190506142a7565b838111156142d1576000848401525b50505050565b600060028204905060018216806142ef57607f821691505b6020821081141561430357614302614412565b5b50919050565b61431282614470565b810181811067ffffffffffffffff8211171561433157614330614441565b5b80604052505050565b60006143458261428b565b91507fffffffffffffffffffffffffffffffffffffffffffffffffffffffffffffffff821415614378576143776143b4565b5b600182019050919050565b600061438e8261428b565b91506143998361428b565b9250826143a9576143a86143e3565b5b828206905092915050565b7f4e487b7100000000000000000000000000000000000000000000000000000000600052601160045260246000fd5b7f4e487b7100000000000000000000000000000000000000000000000000000000600052601260045260246000fd5b7f4e487b7100000000000000000000000000000000000000000000000000000000600052602260045260246000fd5b7f4e487b7100000000000000000000000000000000000000000000000000000000600052604160045260246000fd5b6000601f19601f8301169050919050565b7f202d2d204e465420233a20000000000000000000000000000000000000000000600082015250565b7f41637469766520626f7373206d757374206861766520485020746f206265206160008201527f747461636b656421000000000000000000000000000000000000000000000000602082015250565b7f4552433732313a207472616e7366657220746f206e6f6e20455243373231526560008201527f63656976657220696d706c656d656e7465720000000000000000000000000000602082015250565b7f4552433732313a207472616e736665722066726f6d20696e636f72726563742060008201527f6f776e6572000000000000000000000000000000000000000000000000000000602082015250565b7f4552433732313a20746f6b656e20616c7265616479206d696e74656400000000600082015250565b7f2c20226d61785f76616c7565223a000000000000000000000000000000000000600082015250565b7f4552433732313a207472616e7366657220746f20746865207a65726f2061646460008201527f7265737300000000000000000000000000000000000000000000000000000000602082015250565b7f4552433732313a20617070726f766520746f2063616c6c657200000000000000600082015250565b7f4552433732313a206f70657261746f7220717565727920666f72206e6f6e657860008201527f697374656e7420746f6b656e0000000000000000000000000000000000000000602082015250565b7f4552433732313a20617070726f76652063616c6c6572206973206e6f74206f7760008201527f6e6572206e6f7220617070726f76656420666f7220616c6c0000000000000000602082015250565b7f4552433732313a2062616c616e636520717565727920666f7220746865207a6560008201527f726f206164647265737300000000000000000000000000000000000000000000602082015250565b7f4552433732313a206f776e657220717565727920666f72206e6f6e657869737460008201527f656e7420746f6b656e0000000000000000000000000000000000000000000000602082015250565b7f7d205d7d00000000000000000000000000000000000000000000000000000000600082015250565b7f4552433732313a206d696e7420746f20746865207a65726f2061646472657373600082015250565b7f222c20226465736372697074696f6e223a2022412053616765204e465420746f60008201527f20706c61792074686520696e207468652053616765766572736521222c20226960208201527f6d616765223a2022000000000000000000000000000000000000000000000000604082015250565b7f4552433732313a20617070726f76656420717565727920666f72206e6f6e657860008201527f697374656e7420746f6b656e0000000000000000000000000000000000000000602082015250565b7f7b226e616d65223a202200000000000000000000000000000000000000000000600082015250565b7f41747461636b6572206d757374206861766520485020746f2061747461636b21600082015250565b7f4552433732313a20617070726f76616c20746f2063757272656e74206f776e6560008201527f7200000000000000000000000000000000000000000000000000000000000000602082015250565b7f646174613a6170706c69636174696f6e2f6a736f6e3b6261736536342c000000600082015250565b7f4552433732313a207472616e736665722063616c6c6572206973206e6f74206f60008201527f776e6572206e6f7220617070726f766564000000000000000000000000000000602082015250565b7f222c202261747472696275746573223a205b207b202274726169745f7479706560008201527f223a20224865616c746820506f696e7473222c202276616c7565223a20000000602082015250565b7f7d2c207b202274726169745f74797065223a202241747461636b2044616d616760008201527f65222c202276616c7565223a2000000000000000000000000000000000000000602082015250565b614a7381614221565b8114614a7e57600080fd5b50565b614a8a81614233565b8114614a9557600080fd5b50565b614aa18161423f565b8114614aac57600080fd5b50565b614ab88161428b565b8114614ac357600080fd5b5056fe506c617965722061747461636b656420626f73732e204e657720626f73732068703a2025734d696e7465642053616765204e465420772f20746f6b656e496420257320616e642073616765496e6465782025734142434445464748494a4b4c4d4e4f505152535455565758595a6162636465666768696a6b6c6d6e6f707172737475767778797a303132333435363738392b2f426f73732061747461636b656420706c617965722e204e657720706c617965722068703a2025730a446f6e6520696e697469616c697a696e6720626f737320257320772f2048502025732c20696d672025730a506c6179657220772f206368617261637465722025732061626f757420746f2061747461636b2e2048617320257320485020616e64202573204144a2646970667358221220b5b61f50967934dee950da8b62d41e517d478912260255884809e6b00121064264736f6c6343000804003346696e697368656420696e697469616c697a696e6720257320772f2048502025732c20696d67202573",
  "linkReferences": {},
  "deployedLinkReferences": {}
}