{
  "_format": "hh-sol-artifact-1",
  "contractName": "SageGame",
  "sourceName": "contracts/SageGame.sol",
  "abi": [
    {
      "inputs": [
        {
          "internalType": "string[]",
          "name": "sageNames",
          "type": "string[]"
        },
        {
          "internalType": "string[]",
          "name": "sageImageURIs",
          "type": "string[]"
        },
        {
          "internalType": "uint256[]",
          "name": "sageHp",
          "type": "uint256[]"
        },
        {
          "internalType": "uint256[]",
          "name": "sageAttackDamage",
          "type": "uint256[]"
        },
        {
          "internalType": "uint256[]",
          "name": "prices",
          "type": "uint256[]"
        },
        {
          "internalType": "uint256",
          "name": "initialHealingPrice",
          "type": "uint256"
        }
      ],
      "stateMutability": "nonpayable",
      "type": "constructor"
    },
    {
      "anonymous": false,
      "inputs": [
        {
          "indexed": true,
          "internalType": "address",
          "name": "owner",
          "type": "address"
        },
        {
          "indexed": true,
          "internalType": "address",
          "name": "approved",
          "type": "address"
        },
        {
          "indexed": true,
          "internalType": "uint256",
          "name": "tokenId",
          "type": "uint256"
        }
      ],
      "name": "Approval",
      "type": "event"
    },
    {
      "anonymous": false,
      "inputs": [
        {
          "indexed": true,
          "internalType": "address",
          "name": "owner",
          "type": "address"
        },
        {
          "indexed": true,
          "internalType": "address",
          "name": "operator",
          "type": "address"
        },
        {
          "indexed": false,
          "internalType": "bool",
          "name": "approved",
          "type": "bool"
        }
      ],
      "name": "ApprovalForAll",
      "type": "event"
    },
    {
      "anonymous": false,
      "inputs": [
        {
          "indexed": false,
          "internalType": "uint256",
          "name": "newBossHp",
          "type": "uint256"
        },
        {
          "indexed": false,
          "internalType": "uint256",
          "name": "playerTokenId",
          "type": "uint256"
        },
        {
          "indexed": false,
          "internalType": "uint256",
          "name": "newPlayerHp",
          "type": "uint256"
        }
      ],
      "name": "AttackComplete",
      "type": "event"
    },
    {
      "anonymous": false,
      "inputs": [
        {
          "indexed": true,
          "internalType": "address",
          "name": "previousOwner",
          "type": "address"
        },
        {
          "indexed": true,
          "internalType": "address",
          "name": "newOwner",
          "type": "address"
        }
      ],
      "name": "OwnershipTransferred",
      "type": "event"
    },
    {
      "anonymous": false,
      "inputs": [
        {
          "indexed": false,
          "internalType": "address",
          "name": "sender",
          "type": "address"
        },
        {
          "indexed": false,
          "internalType": "uint256",
          "name": "tokenId",
          "type": "uint256"
        },
        {
          "indexed": false,
          "internalType": "uint256",
          "name": "sageIndex",
          "type": "uint256"
        }
      ],
      "name": "SageNFTMinted",
      "type": "event"
    },
    {
      "anonymous": false,
      "inputs": [
        {
          "indexed": true,
          "internalType": "address",
          "name": "from",
          "type": "address"
        },
        {
          "indexed": true,
          "internalType": "address",
          "name": "to",
          "type": "address"
        },
        {
          "indexed": true,
          "internalType": "uint256",
          "name": "tokenId",
          "type": "uint256"
        }
      ],
      "name": "Transfer",
      "type": "event"
    },
    {
      "inputs": [
        {
          "internalType": "uint256",
          "name": "_sageIndex",
          "type": "uint256"
        }
      ],
      "name": "_internalMintSageNft",
      "outputs": [],
      "stateMutability": "payable",
      "type": "function"
    },
    {
      "inputs": [],
      "name": "activeSageBoss",
      "outputs": [
        {
          "internalType": "string",
          "name": "name",
          "type": "string"
        },
        {
          "internalType": "string",
          "name": "imageURI",
          "type": "string"
        },
        {
          "internalType": "uint256",
          "name": "hp",
          "type": "uint256"
        },
        {
          "internalType": "uint256",
          "name": "maxHp",
          "type": "uint256"
        },
        {
          "internalType": "uint256",
          "name": "attackDamage",
          "type": "uint256"
        },
        {
          "internalType": "uint256",
          "name": "price",
          "type": "uint256"
        }
      ],
      "stateMutability": "view",
      "type": "function"
    },
    {
      "inputs": [
        {
          "internalType": "address",
          "name": "to",
          "type": "address"
        },
        {
          "internalType": "uint256",
          "name": "tokenId",
          "type": "uint256"
        }
      ],
      "name": "approve",
      "outputs": [],
      "stateMutability": "nonpayable",
      "type": "function"
    },
    {
      "inputs": [
        {
          "internalType": "uint256",
          "name": "tokenId",
          "type": "uint256"
        }
      ],
      "name": "attackBoss",
      "outputs": [],
      "stateMutability": "nonpayable",
      "type": "function"
    },
    {
      "inputs": [
        {
          "internalType": "address",
          "name": "owner",
          "type": "address"
        }
      ],
      "name": "balanceOf",
      "outputs": [
        {
          "internalType": "uint256",
          "name": "",
          "type": "uint256"
        }
      ],
      "stateMutability": "view",
      "type": "function"
    },
    {
      "inputs": [],
      "name": "getActiveSageBoss",
      "outputs": [
        {
          "components": [
            {
              "internalType": "string",
              "name": "name",
              "type": "string"
            },
            {
              "internalType": "string",
              "name": "imageURI",
              "type": "string"
            },
            {
              "internalType": "uint256",
              "name": "hp",
              "type": "uint256"
            },
            {
              "internalType": "uint256",
              "name": "maxHp",
              "type": "uint256"
            },
            {
              "internalType": "uint256",
              "name": "attackDamage",
              "type": "uint256"
            },
            {
              "internalType": "uint256",
              "name": "price",
              "type": "uint256"
            }
          ],
          "internalType": "struct SageBossContract.SageBoss",
          "name": "",
          "type": "tuple"
        }
      ],
      "stateMutability": "view",
      "type": "function"
    },
    {
      "inputs": [
        {
          "internalType": "uint256",
          "name": "tokenId",
          "type": "uint256"
        }
      ],
      "name": "getApproved",
      "outputs": [
        {
          "internalType": "address",
          "name": "",
          "type": "address"
        }
      ],
      "stateMutability": "view",
      "type": "function"
    },
    {
      "inputs": [],
      "name": "getHealingPrice",
      "outputs": [
        {
          "internalType": "uint256",
          "name": "",
          "type": "uint256"
        }
      ],
      "stateMutability": "view",
      "type": "function"
    },
    {
      "inputs": [],
      "name": "getOwnedSageNFTs",
      "outputs": [
        {
          "components": [
            {
              "internalType": "uint256",
              "name": "hp",
              "type": "uint256"
            },
            {
              "internalType": "uint256",
              "name": "maxHp",
              "type": "uint256"
            },
            {
              "internalType": "uint256",
              "name": "attackDamage",
              "type": "uint256"
            },
            {
              "internalType": "uint256",
              "name": "sageIndex",
              "type": "uint256"
            },
            {
              "internalType": "uint256",
              "name": "tokenId",
              "type": "uint256"
            },
            {
              "internalType": "uint256",
              "name": "price",
              "type": "uint256"
            },
            {
              "internalType": "string",
              "name": "name",
              "type": "string"
            },
            {
              "internalType": "string",
              "name": "imageURI",
              "type": "string"
            }
          ],
          "internalType": "struct SageCharacterContract.SageAttributes[]",
          "name": "",
          "type": "tuple[]"
        }
      ],
      "stateMutability": "view",
      "type": "function"
    },
    {
      "inputs": [],
      "name": "getPlayableSages",
      "outputs": [
        {
          "components": [
            {
              "internalType": "uint256",
              "name": "hp",
              "type": "uint256"
            },
            {
              "internalType": "uint256",
              "name": "maxHp",
              "type": "uint256"
            },
            {
              "internalType": "uint256",
              "name": "attackDamage",
              "type": "uint256"
            },
            {
              "internalType": "uint256",
              "name": "sageIndex",
              "type": "uint256"
            },
            {
              "internalType": "uint256",
              "name": "tokenId",
              "type": "uint256"
            },
            {
              "internalType": "uint256",
              "name": "price",
              "type": "uint256"
            },
            {
              "internalType": "string",
              "name": "name",
              "type": "string"
            },
            {
              "internalType": "string",
              "name": "imageURI",
              "type": "string"
            }
          ],
          "internalType": "struct SageCharacterContract.SageAttributes[]",
          "name": "",
          "type": "tuple[]"
        }
      ],
      "stateMutability": "view",
      "type": "function"
    },
    {
      "inputs": [
        {
          "internalType": "uint256",
          "name": "sageId",
          "type": "uint256"
        }
      ],
      "name": "healSage",
      "outputs": [],
      "stateMutability": "payable",
      "type": "function"
    },
    {
      "inputs": [],
      "name": "healingPrice",
      "outputs": [
        {
          "internalType": "uint256",
          "name": "",
          "type": "uint256"
        }
      ],
      "stateMutability": "view",
      "type": "function"
    },
    {
      "inputs": [
        {
          "internalType": "address",
          "name": "owner",
          "type": "address"
        },
        {
          "internalType": "address",
          "name": "operator",
          "type": "address"
        }
      ],
      "name": "isApprovedForAll",
      "outputs": [
        {
          "internalType": "bool",
          "name": "",
          "type": "bool"
        }
      ],
      "stateMutability": "view",
      "type": "function"
    },
    {
      "inputs": [
        {
          "internalType": "uint256",
          "name": "_sageIndex",
          "type": "uint256"
        }
      ],
      "name": "mintSageNft",
      "outputs": [],
      "stateMutability": "payable",
      "type": "function"
    },
    {
      "inputs": [],
      "name": "name",
      "outputs": [
        {
          "internalType": "string",
          "name": "",
          "type": "string"
        }
      ],
      "stateMutability": "view",
      "type": "function"
    },
    {
      "inputs": [],
      "name": "owner",
      "outputs": [
        {
          "internalType": "address",
          "name": "",
          "type": "address"
        }
      ],
      "stateMutability": "view",
      "type": "function"
    },
    {
      "inputs": [
        {
          "internalType": "uint256",
          "name": "tokenId",
          "type": "uint256"
        }
      ],
      "name": "ownerOf",
      "outputs": [
        {
          "internalType": "address",
          "name": "",
          "type": "address"
        }
      ],
      "stateMutability": "view",
      "type": "function"
    },
    {
      "inputs": [],
      "name": "renounceOwnership",
      "outputs": [],
      "stateMutability": "nonpayable",
      "type": "function"
    },
    {
      "inputs": [
        {
          "internalType": "address",
          "name": "from",
          "type": "address"
        },
        {
          "internalType": "address",
          "name": "to",
          "type": "address"
        },
        {
          "internalType": "uint256",
          "name": "tokenId",
          "type": "uint256"
        }
      ],
      "name": "safeTransferFrom",
      "outputs": [],
      "stateMutability": "nonpayable",
      "type": "function"
    },
    {
      "inputs": [
        {
          "internalType": "address",
          "name": "from",
          "type": "address"
        },
        {
          "internalType": "address",
          "name": "to",
          "type": "address"
        },
        {
          "internalType": "uint256",
          "name": "tokenId",
          "type": "uint256"
        },
        {
          "internalType": "bytes",
          "name": "_data",
          "type": "bytes"
        }
      ],
      "name": "safeTransferFrom",
      "outputs": [],
      "stateMutability": "nonpayable",
      "type": "function"
    },
    {
      "inputs": [
        {
          "internalType": "uint256",
          "name": "",
          "type": "uint256"
        }
      ],
      "name": "sageIdToAttributes",
      "outputs": [
        {
          "internalType": "uint256",
          "name": "hp",
          "type": "uint256"
        },
        {
          "internalType": "uint256",
          "name": "maxHp",
          "type": "uint256"
        },
        {
          "internalType": "uint256",
          "name": "attackDamage",
          "type": "uint256"
        },
        {
          "internalType": "uint256",
          "name": "sageIndex",
          "type": "uint256"
        },
        {
          "internalType": "uint256",
          "name": "tokenId",
          "type": "uint256"
        },
        {
          "internalType": "uint256",
          "name": "price",
          "type": "uint256"
        },
        {
          "internalType": "string",
          "name": "name",
          "type": "string"
        },
        {
          "internalType": "string",
          "name": "imageURI",
          "type": "string"
        }
      ],
      "stateMutability": "view",
      "type": "function"
    },
    {
      "inputs": [
        {
          "internalType": "uint256",
          "name": "",
          "type": "uint256"
        }
      ],
      "name": "sageIdToOwner",
      "outputs": [
        {
          "internalType": "address",
          "name": "",
          "type": "address"
        }
      ],
      "stateMutability": "view",
      "type": "function"
    },
    {
      "inputs": [
        {
          "internalType": "address",
          "name": "",
          "type": "address"
        },
        {
          "internalType": "uint256",
          "name": "",
          "type": "uint256"
        }
      ],
      "name": "sageOwnerToId",
      "outputs": [
        {
          "internalType": "uint256",
          "name": "",
          "type": "uint256"
        }
      ],
      "stateMutability": "view",
      "type": "function"
    },
    {
      "inputs": [
        {
          "internalType": "address",
          "name": "operator",
          "type": "address"
        },
        {
          "internalType": "bool",
          "name": "approved",
          "type": "bool"
        }
      ],
      "name": "setApprovalForAll",
      "outputs": [],
      "stateMutability": "nonpayable",
      "type": "function"
    },
    {
      "inputs": [
        {
          "internalType": "uint256",
          "name": "newPrice",
          "type": "uint256"
        }
      ],
      "name": "setHealingPrice",
      "outputs": [],
      "stateMutability": "nonpayable",
      "type": "function"
    },
    {
      "inputs": [
        {
          "internalType": "string",
          "name": "bossName",
          "type": "string"
        },
        {
          "internalType": "string",
          "name": "bossImageURI",
          "type": "string"
        },
        {
          "internalType": "uint256",
          "name": "bossHp",
          "type": "uint256"
        },
        {
          "internalType": "uint256",
          "name": "bossAttackDamage",
          "type": "uint256"
        },
        {
          "internalType": "uint256",
          "name": "price",
          "type": "uint256"
        }
      ],
      "name": "spawnBoss",
      "outputs": [],
      "stateMutability": "nonpayable",
      "type": "function"
    },
    {
      "inputs": [
        {
          "internalType": "bytes4",
          "name": "interfaceId",
          "type": "bytes4"
        }
      ],
      "name": "supportsInterface",
      "outputs": [
        {
          "internalType": "bool",
          "name": "",
          "type": "bool"
        }
      ],
      "stateMutability": "view",
      "type": "function"
    },
    {
      "inputs": [],
      "name": "symbol",
      "outputs": [
        {
          "internalType": "string",
          "name": "",
          "type": "string"
        }
      ],
      "stateMutability": "view",
      "type": "function"
    },
    {
      "inputs": [
        {
          "internalType": "uint256",
          "name": "_tokenId",
          "type": "uint256"
        }
      ],
      "name": "tokenURI",
      "outputs": [
        {
          "internalType": "string",
          "name": "",
          "type": "string"
        }
      ],
      "stateMutability": "view",
      "type": "function"
    },
    {
      "inputs": [
        {
          "internalType": "address",
          "name": "from",
          "type": "address"
        },
        {
          "internalType": "address",
          "name": "to",
          "type": "address"
        },
        {
          "internalType": "uint256",
          "name": "tokenId",
          "type": "uint256"
        }
      ],
      "name": "transferFrom",
      "outputs": [],
      "stateMutability": "nonpayable",
      "type": "function"
    },
    {
      "inputs": [
        {
          "internalType": "address",
          "name": "newOwner",
          "type": "address"
        }
      ],
      "name": "transferOwnership",
      "outputs": [],
      "stateMutability": "nonpayable",
      "type": "function"
    },
    {
      "inputs": [
        {
          "internalType": "uint256",
          "name": "sageIndex",
          "type": "uint256"
        },
        {
          "internalType": "uint256",
          "name": "newPrice",
          "type": "uint256"
        }
      ],
      "name": "updateSagePrice",
      "outputs": [],
      "stateMutability": "nonpayable",
      "type": "function"
    },
    {
      "inputs": [],
      "name": "withdraw",
      "outputs": [],
      "stateMutability": "nonpayable",
      "type": "function"
    }
  ],
  "bytecode": "0x60806040523480156200001157600080fd5b506040516200621638038062006216833981810160405281019062000037919062000710565b6040518060400160405280600e81526020017f2d2d546573742053616765732d2d0000000000000000000000000000000000008152506040518060400160405280600781526020017f54535453414745000000000000000000000000000000000000000000000000008152508160009080519060200190620000bb92919062000478565b508060019080519060200190620000d492919062000478565b505050620000f7620000eb620002a060201b60201c565b620002a860201b60201c565b60005b865181101562000275576200025e87828151811062000142577f4e487b7100000000000000000000000000000000000000000000000000000000600052603260045260246000fd5b602002602001015187838151811062000184577f4e487b7100000000000000000000000000000000000000000000000000000000600052603260045260246000fd5b6020026020010151878481518110620001c6577f4e487b7100000000000000000000000000000000000000000000000000000000600052603260045260246000fd5b602002602001015187858151811062000208577f4e487b7100000000000000000000000000000000000000000000000000000000600052603260045260246000fd5b60200260200101518786815181106200024a577f4e487b7100000000000000000000000000000000000000000000000000000000600052603260045260246000fd5b60200260200101516200036e60201b60201c565b6001816200026d9190620008e0565b9050620000fa565b506200028d60126200046260201b620024b91760201c565b80600b8190555050505050505062000aa1565b600033905090565b6000600660009054906101000a900473ffffffffffffffffffffffffffffffffffffffff16905081600660006101000a81548173ffffffffffffffffffffffffffffffffffffffff021916908373ffffffffffffffffffffffffffffffffffffffff1602179055508173ffffffffffffffffffffffffffffffffffffffff168173ffffffffffffffffffffffffffffffffffffffff167f8be0079c531659141344cd1fd0a4f28419497f9722a3daafe3b4186f6b6457e060405160405180910390a35050565b60006007805490509050600760405180610100016040528086815260200186815260200185815260200183815260200160008152602001848152602001888152602001878152509080600181540180825580915050600190039060005260206000209060080201600090919091909150600082015181600001556020820151816001015560408201518160020155606082015181600301556080820151816004015560a0820151816005015560c08201518160060190805190602001906200043892919062000478565b5060e08201518160070190805190602001906200045792919062000478565b505050505050505050565b6001816000016000828254019250508190555050565b82805462000486906200097d565b90600052602060002090601f016020900481019282620004aa5760008555620004f6565b82601f10620004c557805160ff1916838001178555620004f6565b82800160010185558215620004f6579182015b82811115620004f5578251825591602001919060010190620004d8565b5b50905062000505919062000509565b5090565b5b80821115620005245760008160009055506001016200050a565b5090565b60006200053f62000539846200084c565b62000823565b905080838252602082019050828560208602820111156200055f57600080fd5b60005b85811015620005ae57815167ffffffffffffffff8111156200058357600080fd5b808601620005928982620006cc565b8552602085019450602084019350505060018101905062000562565b5050509392505050565b6000620005cf620005c9846200087b565b62000823565b90508083825260208201905082856020860282011115620005ef57600080fd5b60005b85811015620006235781620006088882620006f9565b845260208401935060208301925050600181019050620005f2565b5050509392505050565b6000620006446200063e84620008aa565b62000823565b9050828152602081018484840111156200065d57600080fd5b6200066a84828562000947565b509392505050565b600082601f8301126200068457600080fd5b81516200069684826020860162000528565b91505092915050565b600082601f830112620006b157600080fd5b8151620006c3848260208601620005b8565b91505092915050565b600082601f830112620006de57600080fd5b8151620006f08482602086016200062d565b91505092915050565b6000815190506200070a8162000a87565b92915050565b60008060008060008060c087890312156200072a57600080fd5b600087015167ffffffffffffffff8111156200074557600080fd5b6200075389828a0162000672565b965050602087015167ffffffffffffffff8111156200077157600080fd5b6200077f89828a0162000672565b955050604087015167ffffffffffffffff8111156200079d57600080fd5b620007ab89828a016200069f565b945050606087015167ffffffffffffffff811115620007c957600080fd5b620007d789828a016200069f565b935050608087015167ffffffffffffffff811115620007f557600080fd5b6200080389828a016200069f565b92505060a06200081689828a01620006f9565b9150509295509295509295565b60006200082f62000842565b90506200083d8282620009b3565b919050565b6000604051905090565b600067ffffffffffffffff8211156200086a576200086962000a47565b5b602082029050602081019050919050565b600067ffffffffffffffff82111562000899576200089862000a47565b5b602082029050602081019050919050565b600067ffffffffffffffff821115620008c857620008c762000a47565b5b620008d38262000a76565b9050602081019050919050565b6000620008ed826200093d565b9150620008fa836200093d565b9250827fffffffffffffffffffffffffffffffffffffffffffffffffffffffffffffffff03821115620009325762000931620009e9565b5b828201905092915050565b6000819050919050565b60005b83811015620009675780820151818401526020810190506200094a565b8381111562000977576000848401525b50505050565b600060028204905060018216806200099657607f821691505b60208210811415620009ad57620009ac62000a18565b5b50919050565b620009be8262000a76565b810181811067ffffffffffffffff82111715620009e057620009df62000a47565b5b80604052505050565b7f4e487b7100000000000000000000000000000000000000000000000000000000600052601160045260246000fd5b7f4e487b7100000000000000000000000000000000000000000000000000000000600052602260045260246000fd5b7f4e487b7100000000000000000000000000000000000000000000000000000000600052604160045260246000fd5b6000601f19601f8301169050919050565b62000a92816200093d565b811462000a9e57600080fd5b50565b6157658062000ab16000396000f3fe6080604052600436106101ee5760003560e01c8063894994c31161010d578063b88d4fde116100a0578063e985e9c51161006f578063e985e9c5146106d9578063edbf04c414610716578063f2fde38b14610741578063f66adc951461076a578063fd8abbd9146107a7576101ee565b8063b88d4fde1461061f578063c87b56dd14610648578063cb63f4a714610685578063d61dce4c146106b0576101ee565b8063986fd0d7116100dc578063986fd0d71461055e5780639942f46714610587578063a22cb465146105b2578063ab6ab6ff146105db576101ee565b8063894994c3146104b45780638da5cb5b146104dd578063923eccc81461050857806395d89b4114610533576101ee565b806323b872dd116101855780636352211e116101545780636352211e146103f3578063707df9651461043057806370a0823114610460578063715018a61461049d576101ee565b806323b872dd1461036e5780633ccfd60b1461039757806342842e0e146103ae57806356b92508146103d7576101ee565b8063082c6d21116101c1578063082c6d21146102c1578063095ea7b3146102fe5780630ae74ce21461032757806314f7b04514610343576101ee565b806301ffc9a7146101f35780630619f9321461023057806306fdde0314610259578063081812fc14610284575b600080fd5b3480156101ff57600080fd5b5061021a60048036038101906102159190613bf7565b6107c3565b6040516102279190614616565b60405180910390f35b34801561023c57600080fd5b5061025760048036038101906102529190613cf0565b6108a5565b005b34801561026557600080fd5b5061026e6108da565b60405161027b9190614631565b60405180910390f35b34801561029057600080fd5b506102ab60048036038101906102a69190613cf0565b61096c565b6040516102b89190614556565b60405180910390f35b3480156102cd57600080fd5b506102e860048036038101906102e39190613bbb565b6109f1565b6040516102f591906149a4565b60405180910390f35b34801561030a57600080fd5b5061032560048036038101906103209190613bbb565b610a22565b005b610341600480360381019061033c9190613cf0565b610b3a565b005b34801561034f57600080fd5b50610358610bd4565b60405161036591906145f4565b60405180910390f35b34801561037a57600080fd5b5061039560048036038101906103909190613ab5565b610d94565b005b3480156103a357600080fd5b506103ac610df4565b005b3480156103ba57600080fd5b506103d560048036038101906103d09190613ab5565b610f25565b005b6103f160048036038101906103ec9190613cf0565b610f45565b005b3480156103ff57600080fd5b5061041a60048036038101906104159190613cf0565b6113ac565b6040516104279190614556565b60405180910390f35b34801561043c57600080fd5b5061044561145e565b60405161045796959493929190614653565b60405180910390f35b34801561046c57600080fd5b5061048760048036038101906104829190613a50565b611598565b60405161049491906149a4565b60405180910390f35b3480156104a957600080fd5b506104b2611650565b005b3480156104c057600080fd5b506104db60048036038101906104d69190613cf0565b6116d8565b005b3480156104e957600080fd5b506104f261175e565b6040516104ff9190614556565b60405180910390f35b34801561051457600080fd5b5061051d611788565b60405161052a91906149a4565b60405180910390f35b34801561053f57600080fd5b50610548611792565b6040516105559190614631565b60405180910390f35b34801561056a57600080fd5b5061058560048036038101906105809190613c49565b611824565b005b34801561059357600080fd5b5061059c6118bf565b6040516105a991906149a4565b60405180910390f35b3480156105be57600080fd5b506105d960048036038101906105d49190613b7f565b6118c5565b005b3480156105e757600080fd5b5061060260048036038101906105fd9190613cf0565b6118db565b6040516106169897969594939291906149f6565b60405180910390f35b34801561062b57600080fd5b5061064660048036038101906106419190613b04565b611a33565b005b34801561065457600080fd5b5061066f600480360381019061066a9190613cf0565b611a95565b60405161067c9190614631565b60405180910390f35b34801561069157600080fd5b5061069a611cc5565b6040516106a79190614982565b60405180910390f35b3480156106bc57600080fd5b506106d760048036038101906106d29190613d19565b611e2b565b005b3480156106e557600080fd5b5061070060048036038101906106fb9190613a79565b611f42565b60405161070d9190614616565b60405180910390f35b34801561072257600080fd5b5061072b611fd6565b60405161073891906145f4565b60405180910390f35b34801561074d57600080fd5b5061076860048036038101906107639190613a50565b612315565b005b34801561077657600080fd5b50610791600480360381019061078c9190613cf0565b61240d565b60405161079e9190614556565b60405180910390f35b6107c160048036038101906107bc9190613cf0565b612440565b005b60007f80ac58cd000000000000000000000000000000000000000000000000000000007bffffffffffffffffffffffffffffffffffffffffffffffffffffffff1916827bffffffffffffffffffffffffffffffffffffffffffffffffffffffff1916148061088e57507f5b5e139f000000000000000000000000000000000000000000000000000000007bffffffffffffffffffffffffffffffffffffffffffffffffffffffff1916827bffffffffffffffffffffffffffffffffffffffffffffffffffffffff1916145b8061089e575061089d826124cf565b5b9050919050565b6108ae81612539565b6000600c6002015414156108d7576108d660016007805490506108d19190614c82565b610f45565b5b50565b6060600080546108e990614d6c565b80601f016020809104026020016040519081016040528092919081815260200182805461091590614d6c565b80156109625780601f1061093757610100808354040283529160200191610962565b820191906000526020600020905b81548152906001019060200180831161094557829003601f168201915b5050505050905090565b60006109778261275c565b6109b6576040517f08c379a00000000000000000000000000000000000000000000000000000000081526004016109ad906148a2565b60405180910390fd5b6004600083815260200190815260200160002060009054906101000a900473ffffffffffffffffffffffffffffffffffffffff169050919050565b600a6020528160005260406000208181548110610a0d57600080fd5b90600052602060002001600091509150505481565b6000610a2d826113ac565b90508073ffffffffffffffffffffffffffffffffffffffff168373ffffffffffffffffffffffffffffffffffffffff161415610a9e576040517f08c379a0000000000000000000000000000000000000000000000000000000008152600401610a9590614922565b60405180910390fd5b8073ffffffffffffffffffffffffffffffffffffffff16610abd6127c8565b73ffffffffffffffffffffffffffffffffffffffff161480610aec5750610aeb81610ae66127c8565b611f42565b5b610b2b576040517f08c379a0000000000000000000000000000000000000000000000000000000008152600401610b2290614802565b60405180910390fd5b610b3583836127d0565b505050565b60078181548110610b74577f4e487b7100000000000000000000000000000000000000000000000000000000600052603260045260246000fd5b906000526020600020906008020160050154341015610bc8576040517f08c379a0000000000000000000000000000000000000000000000000000000008152600401610bbf90614942565b60405180910390fd5b610bd181610f45565b50565b60606007805480602002602001604051908101604052809291908181526020016000905b82821015610d8b578382906000526020600020906008020160405180610100016040529081600082015481526020016001820154815260200160028201548152602001600382015481526020016004820154815260200160058201548152602001600682018054610c6890614d6c565b80601f0160208091040260200160405190810160405280929190818152602001828054610c9490614d6c565b8015610ce15780601f10610cb657610100808354040283529160200191610ce1565b820191906000526020600020905b815481529060010190602001808311610cc457829003601f168201915b50505050508152602001600782018054610cfa90614d6c565b80601f0160208091040260200160405190810160405280929190818152602001828054610d2690614d6c565b8015610d735780601f10610d4857610100808354040283529160200191610d73565b820191906000526020600020905b815481529060010190602001808311610d5657829003601f168201915b50505050508152505081526020019060010190610bf8565b50505050905090565b610da5610d9f6127c8565b82612889565b610de4576040517f08c379a0000000000000000000000000000000000000000000000000000000008152600401610ddb90614962565b60405180910390fd5b610def838383612967565b505050565b610dfc6127c8565b73ffffffffffffffffffffffffffffffffffffffff16610e1a61175e565b73ffffffffffffffffffffffffffffffffffffffff1614610e70576040517f08c379a0000000000000000000000000000000000000000000000000000000008152600401610e67906148c2565b60405180910390fd5b600047905060003373ffffffffffffffffffffffffffffffffffffffff1682604051610e9b90614541565b60006040518083038185875af1925050503d8060008114610ed8576040519150601f19603f3d011682016040523d82523d6000602084013e610edd565b606091505b5050905080610f21576040517f08c379a0000000000000000000000000000000000000000000000000000000008152600401610f1890614862565b60405180910390fd5b5050565b610f4083838360405180602001604052806000815250611a33565b505050565b6000610f516012612bce565b9050610f5d3382612bdc565b60405180610100016040528060078481548110610fa3577f4e487b7100000000000000000000000000000000000000000000000000000000600052603260045260246000fd5b906000526020600020906008020160000154815260200160078481548110610ff4577f4e487b7100000000000000000000000000000000000000000000000000000000600052603260045260246000fd5b906000526020600020906008020160010154815260200160078481548110611045577f4e487b7100000000000000000000000000000000000000000000000000000000600052603260045260246000fd5b906000526020600020906008020160020154815260200183815260200182815260200160008152602001600784815481106110a9577f4e487b7100000000000000000000000000000000000000000000000000000000600052603260045260246000fd5b906000526020600020906008020160060180546110c590614d6c565b80601f01602080910402602001604051908101604052809291908181526020018280546110f190614d6c565b801561113e5780601f106111135761010080835404028352916020019161113e565b820191906000526020600020905b81548152906001019060200180831161112157829003601f168201915b5050505050815260200160078481548110611182577f4e487b7100000000000000000000000000000000000000000000000000000000600052603260045260246000fd5b9060005260206000209060080201600701805461119e90614d6c565b80601f01602080910402602001604051908101604052809291908181526020018280546111ca90614d6c565b80156112175780601f106111ec57610100808354040283529160200191611217565b820191906000526020600020905b8154815290600101906020018083116111fa57829003601f168201915b505050505081525060086000838152602001908152602001600020600082015181600001556020820151816001015560408201518160020155606082015181600301556080820151816004015560a0820151816005015560c082015181600601908051906020019061128a9291906137f9565b5060e08201518160070190805190602001906112a79291906137f9565b50905050336009600083815260200190815260200160002060006101000a81548173ffffffffffffffffffffffffffffffffffffffff021916908373ffffffffffffffffffffffffffffffffffffffff160217905550600a60003373ffffffffffffffffffffffffffffffffffffffff1673ffffffffffffffffffffffffffffffffffffffff16815260200190815260200160002081908060018154018082558091505060019003906000526020600020016000909190919091505561136d60126124b9565b7fcc4c48dae5c18de6e5a0e3731293108c2b21721b6308fea08aff9e602b812c973382846040516113a0939291906145bd565b60405180910390a15050565b6000806002600084815260200190815260200160002060009054906101000a900473ffffffffffffffffffffffffffffffffffffffff169050600073ffffffffffffffffffffffffffffffffffffffff168173ffffffffffffffffffffffffffffffffffffffff161415611455576040517f08c379a000000000000000000000000000000000000000000000000000000000815260040161144c90614842565b60405180910390fd5b80915050919050565b600c80600001805461146f90614d6c565b80601f016020809104026020016040519081016040528092919081815260200182805461149b90614d6c565b80156114e85780601f106114bd576101008083540402835291602001916114e8565b820191906000526020600020905b8154815290600101906020018083116114cb57829003601f168201915b5050505050908060010180546114fd90614d6c565b80601f016020809104026020016040519081016040528092919081815260200182805461152990614d6c565b80156115765780601f1061154b57610100808354040283529160200191611576565b820191906000526020600020905b81548152906001019060200180831161155957829003601f168201915b5050505050908060020154908060030154908060040154908060050154905086565b60008073ffffffffffffffffffffffffffffffffffffffff168273ffffffffffffffffffffffffffffffffffffffff161415611609576040517f08c379a000000000000000000000000000000000000000000000000000000000815260040161160090614822565b60405180910390fd5b600360008373ffffffffffffffffffffffffffffffffffffffff1673ffffffffffffffffffffffffffffffffffffffff168152602001908152602001600020549050919050565b6116586127c8565b73ffffffffffffffffffffffffffffffffffffffff1661167661175e565b73ffffffffffffffffffffffffffffffffffffffff16146116cc576040517f08c379a00000000000000000000000000000000000000000000000000000000081526004016116c3906148c2565b60405180910390fd5b6116d66000612bfa565b565b6116e06127c8565b73ffffffffffffffffffffffffffffffffffffffff166116fe61175e565b73ffffffffffffffffffffffffffffffffffffffff1614611754576040517f08c379a000000000000000000000000000000000000000000000000000000000815260040161174b906148c2565b60405180910390fd5b80600b8190555050565b6000600660009054906101000a900473ffffffffffffffffffffffffffffffffffffffff16905090565b6000600b54905090565b6060600180546117a190614d6c565b80601f01602080910402602001604051908101604052809291908181526020018280546117cd90614d6c565b801561181a5780601f106117ef5761010080835404028352916020019161181a565b820191906000526020600020905b8154815290600101906020018083116117fd57829003601f168201915b5050505050905090565b6040518060c0016040528086815260200185815260200184815260200184815260200183815260200182815250600c600082015181600001908051906020019061186f9291906137f9565b50602082015181600101908051906020019061188c9291906137f9565b5060408201518160020155606082015181600301556080820151816004015560a082015181600501559050505050505050565b600b5481565b6118d76118d06127c8565b8383612cc0565b5050565b600860205280600052604060002060009150905080600001549080600101549080600201549080600301549080600401549080600501549080600601805461192290614d6c565b80601f016020809104026020016040519081016040528092919081815260200182805461194e90614d6c565b801561199b5780601f106119705761010080835404028352916020019161199b565b820191906000526020600020905b81548152906001019060200180831161197e57829003601f168201915b5050505050908060070180546119b090614d6c565b80601f01602080910402602001604051908101604052809291908181526020018280546119dc90614d6c565b8015611a295780601f106119fe57610100808354040283529160200191611a29565b820191906000526020600020905b815481529060010190602001808311611a0c57829003601f168201915b5050505050905088565b611a44611a3e6127c8565b83612889565b611a83576040517f08c379a0000000000000000000000000000000000000000000000000000000008152600401611a7a90614962565b60405180910390fd5b611a8f84848484612e2d565b50505050565b606060006008600084815260200190815260200160002060405180610100016040529081600082015481526020016001820154815260200160028201548152602001600382015481526020016004820154815260200160058201548152602001600682018054611b0490614d6c565b80601f0160208091040260200160405190810160405280929190818152602001828054611b3090614d6c565b8015611b7d5780601f10611b5257610100808354040283529160200191611b7d565b820191906000526020600020905b815481529060010190602001808311611b6057829003601f168201915b50505050508152602001600782018054611b9690614d6c565b80601f0160208091040260200160405190810160405280929190818152602001828054611bc290614d6c565b8015611c0f5780601f10611be457610100808354040283529160200191611c0f565b820191906000526020600020905b815481529060010190602001808311611bf257829003601f168201915b50505050508152505090506000611c298260000151612e89565b90506000611c3a8360200151612e89565b90506000611c4b8460400151612e89565b90506000611c918560c00151611c6089612e89565b8760e00151878787604051602001611c7d9695949392919061447a565b604051602081830303815290604052613036565b9050600081604051602001611ca6919061451f565b6040516020818303038152906040529050809650505050505050919050565b611ccd61387f565b600c6040518060c0016040529081600082018054611cea90614d6c565b80601f0160208091040260200160405190810160405280929190818152602001828054611d1690614d6c565b8015611d635780601f10611d3857610100808354040283529160200191611d63565b820191906000526020600020905b815481529060010190602001808311611d4657829003601f168201915b50505050508152602001600182018054611d7c90614d6c565b80601f0160208091040260200160405190810160405280929190818152602001828054611da890614d6c565b8015611df55780601f10611dca57610100808354040283529160200191611df5565b820191906000526020600020905b815481529060010190602001808311611dd857829003601f168201915b50505050508152602001600282015481526020016003820154815260200160048201548152602001600582015481525050905090565b611e336127c8565b73ffffffffffffffffffffffffffffffffffffffff16611e5161175e565b73ffffffffffffffffffffffffffffffffffffffff1614611ea7576040517f08c379a0000000000000000000000000000000000000000000000000000000008152600401611e9e906148c2565b60405180910390fd5b6007805490508210611eee576040517f08c379a0000000000000000000000000000000000000000000000000000000008152600401611ee5906146c2565b60405180910390fd5b8060078381548110611f29577f4e487b7100000000000000000000000000000000000000000000000000000000600052603260045260246000fd5b9060005260206000209060080201600501819055505050565b6000600560008473ffffffffffffffffffffffffffffffffffffffff1673ffffffffffffffffffffffffffffffffffffffff16815260200190815260200160002060008373ffffffffffffffffffffffffffffffffffffffff1673ffffffffffffffffffffffffffffffffffffffff16815260200190815260200160002060009054906101000a900460ff16905092915050565b60606000600a60003373ffffffffffffffffffffffffffffffffffffffff1673ffffffffffffffffffffffffffffffffffffffff16815260200190815260200160002080548060200260200160405190810160405280929190818152602001828054801561206357602002820191906000526020600020905b81548152602001906001019080831161204f575b505050505090506000815167ffffffffffffffff8111156120ad577f4e487b7100000000000000000000000000000000000000000000000000000000600052604160045260246000fd5b6040519080825280602002602001820160405280156120e657816020015b6120d36138b5565b8152602001906001900390816120cb5790505b50905060005b825181101561230c5760086000848381518110612132577f4e487b7100000000000000000000000000000000000000000000000000000000600052603260045260246000fd5b60200260200101518152602001908152602001600020604051806101000160405290816000820154815260200160018201548152602001600282015481526020016003820154815260200160048201548152602001600582015481526020016006820180546121a090614d6c565b80601f01602080910402602001604051908101604052809291908181526020018280546121cc90614d6c565b80156122195780601f106121ee57610100808354040283529160200191612219565b820191906000526020600020905b8154815290600101906020018083116121fc57829003601f168201915b5050505050815260200160078201805461223290614d6c565b80601f016020809104026020016040519081016040528092919081815260200182805461225e90614d6c565b80156122ab5780601f10612280576101008083540402835291602001916122ab565b820191906000526020600020905b81548152906001019060200180831161228e57829003601f168201915b5050505050815250508282815181106122ed577f4e487b7100000000000000000000000000000000000000000000000000000000600052603260045260246000fd5b60200260200101819052506001816123059190614ba1565b90506120ec565b50809250505090565b61231d6127c8565b73ffffffffffffffffffffffffffffffffffffffff1661233b61175e565b73ffffffffffffffffffffffffffffffffffffffff1614612391576040517f08c379a0000000000000000000000000000000000000000000000000000000008152600401612388906148c2565b60405180910390fd5b600073ffffffffffffffffffffffffffffffffffffffff168173ffffffffffffffffffffffffffffffffffffffff161415612401576040517f08c379a00000000000000000000000000000000000000000000000000000000081526004016123f890614742565b60405180910390fd5b61240a81612bfa565b50565b60096020528060005260406000206000915054906101000a900473ffffffffffffffffffffffffffffffffffffffff1681565b600b54341015612485576040517f08c379a000000000000000000000000000000000000000000000000000000000815260040161247c90614702565b60405180910390fd5b6008600082815260200190815260200160002060010154600860008381526020019081526020016000206000018190555050565b6001816000016000828254019250508190555050565b60007f01ffc9a7000000000000000000000000000000000000000000000000000000007bffffffffffffffffffffffffffffffffffffffffffffffffffffffff1916827bffffffffffffffffffffffffffffffffffffffffffffffffffffffff1916149050919050565b3373ffffffffffffffffffffffffffffffffffffffff166009600083815260200190815260200160002060009054906101000a900473ffffffffffffffffffffffffffffffffffffffff1673ffffffffffffffffffffffffffffffffffffffff16146125da576040517f08c379a00000000000000000000000000000000000000000000000000000000081526004016125d1906148e2565b60405180910390fd5b60006008600083815260200190815260200160002090506000816000015411612638576040517f08c379a000000000000000000000000000000000000000000000000000000000815260040161262f90614902565b60405180910390fd5b6000600c6002015411612680576040517f08c379a0000000000000000000000000000000000000000000000000000000008152600401612677906146e2565b60405180910390fd5b8060020154600c60020154116126a8576000600c600201819055506126a36131c0565b6126c7565b8060020154600c600201546126bd9190614c82565b600c600201819055505b6000600c60020154111561271457600c60040154816000015410156126f55760008160000181905550612713565b600c60040154816000015461270a9190614c82565b81600001819055505b5b7fa8f68fa0afad68f1577a1c5c66c297b751442bbab5e98c25f07ee510a921558c600c60020154838360000154604051612750939291906149bf565b60405180910390a15050565b60008073ffffffffffffffffffffffffffffffffffffffff166002600084815260200190815260200160002060009054906101000a900473ffffffffffffffffffffffffffffffffffffffff1673ffffffffffffffffffffffffffffffffffffffff1614159050919050565b600033905090565b816004600083815260200190815260200160002060006101000a81548173ffffffffffffffffffffffffffffffffffffffff021916908373ffffffffffffffffffffffffffffffffffffffff160217905550808273ffffffffffffffffffffffffffffffffffffffff16612843836113ac565b73ffffffffffffffffffffffffffffffffffffffff167f8c5be1e5ebec7d5bd14f71427d1e84f3dd0314c0f7b2291e5b200ac8c7c3b92560405160405180910390a45050565b60006128948261275c565b6128d3576040517f08c379a00000000000000000000000000000000000000000000000000000000081526004016128ca906147e2565b60405180910390fd5b60006128de836113ac565b90508073ffffffffffffffffffffffffffffffffffffffff168473ffffffffffffffffffffffffffffffffffffffff16148061294d57508373ffffffffffffffffffffffffffffffffffffffff166129358461096c565b73ffffffffffffffffffffffffffffffffffffffff16145b8061295e575061295d8185611f42565b5b91505092915050565b8273ffffffffffffffffffffffffffffffffffffffff16612987826113ac565b73ffffffffffffffffffffffffffffffffffffffff16146129dd576040517f08c379a00000000000000000000000000000000000000000000000000000000081526004016129d490614762565b60405180910390fd5b600073ffffffffffffffffffffffffffffffffffffffff168273ffffffffffffffffffffffffffffffffffffffff161415612a4d576040517f08c379a0000000000000000000000000000000000000000000000000000000008152600401612a44906147a2565b60405180910390fd5b612a58838383613310565b612a636000826127d0565b6001600360008573ffffffffffffffffffffffffffffffffffffffff1673ffffffffffffffffffffffffffffffffffffffff1681526020019081526020016000206000828254612ab39190614c82565b925050819055506001600360008473ffffffffffffffffffffffffffffffffffffffff1673ffffffffffffffffffffffffffffffffffffffff1681526020019081526020016000206000828254612b0a9190614ba1565b92505081905550816002600083815260200190815260200160002060006101000a81548173ffffffffffffffffffffffffffffffffffffffff021916908373ffffffffffffffffffffffffffffffffffffffff160217905550808273ffffffffffffffffffffffffffffffffffffffff168473ffffffffffffffffffffffffffffffffffffffff167fddf252ad1be2c89b69c2b068fc378daa952ba7f163c4a11628f55a4df523b3ef60405160405180910390a4612bc9838383613315565b505050565b600081600001549050919050565b612bf682826040518060200160405280600081525061331a565b5050565b6000600660009054906101000a900473ffffffffffffffffffffffffffffffffffffffff16905081600660006101000a81548173ffffffffffffffffffffffffffffffffffffffff021916908373ffffffffffffffffffffffffffffffffffffffff1602179055508173ffffffffffffffffffffffffffffffffffffffff168173ffffffffffffffffffffffffffffffffffffffff167f8be0079c531659141344cd1fd0a4f28419497f9722a3daafe3b4186f6b6457e060405160405180910390a35050565b8173ffffffffffffffffffffffffffffffffffffffff168373ffffffffffffffffffffffffffffffffffffffff161415612d2f576040517f08c379a0000000000000000000000000000000000000000000000000000000008152600401612d26906147c2565b60405180910390fd5b80600560008573ffffffffffffffffffffffffffffffffffffffff1673ffffffffffffffffffffffffffffffffffffffff16815260200190815260200160002060008473ffffffffffffffffffffffffffffffffffffffff1673ffffffffffffffffffffffffffffffffffffffff16815260200190815260200160002060006101000a81548160ff0219169083151502179055508173ffffffffffffffffffffffffffffffffffffffff168373ffffffffffffffffffffffffffffffffffffffff167f17307eab39ab6107e8899845ad3d59bd9653f200f220920489ca2b5937696c3183604051612e209190614616565b60405180910390a3505050565b612e38848484612967565b612e4484848484613375565b612e83576040517f08c379a0000000000000000000000000000000000000000000000000000000008152600401612e7a90614722565b60405180910390fd5b50505050565b60606000821415612ed1576040518060400160405280600181526020017f30000000000000000000000000000000000000000000000000000000000000008152509050613031565b600082905060005b60008214612f03578080612eec90614dcf565b915050600a82612efc9190614bf7565b9150612ed9565b60008167ffffffffffffffff811115612f45577f4e487b7100000000000000000000000000000000000000000000000000000000600052604160045260246000fd5b6040519080825280601f01601f191660200182016040528015612f775781602001600182028036833780820191505090505b5090505b6000851461302a57600182612f909190614c82565b9150600a85612f9f9190614e18565b6030612fab9190614ba1565b60f81b818381518110612fe7577f4e487b7100000000000000000000000000000000000000000000000000000000600052603260045260246000fd5b60200101907effffffffffffffffffffffffffffffffffffffffffffffffffffffffffffff1916908160001a905350600a856130239190614bf7565b9450612f7b565b8093505050505b919050565b6060600082511415613059576040518060200160405280600081525090506131bb565b60006040518060600160405280604081526020016156f060409139905060006003600285516130889190614ba1565b6130929190614bf7565b600461309e9190614c28565b67ffffffffffffffff8111156130dd577f4e487b7100000000000000000000000000000000000000000000000000000000600052604160045260246000fd5b6040519080825280601f01601f19166020018201604052801561310f5781602001600182028036833780820191505090505b509050600182016020820185865187015b8082101561317b576003820191508151603f8160121c168501518453600184019350603f81600c1c168501518453600184019350603f8160061c168501518453600184019350603f8116850151845360018401935050613120565b505060038651066001811461319757600281146131aa576131b2565b603d6001830353603d60028303536131b2565b603d60018303535b50505080925050505b919050565b61330e600c60000180546131d390614d6c565b80601f01602080910402602001604051908101604052809291908181526020018280546131ff90614d6c565b801561324c5780601f106132215761010080835404028352916020019161324c565b820191906000526020600020905b81548152906001019060200180831161322f57829003601f168201915b5050505050600c600101805461326190614d6c565b80601f016020809104026020016040519081016040528092919081815260200182805461328d90614d6c565b80156132da5780601f106132af576101008083540402835291602001916132da565b820191906000526020600020905b8154815290600101906020018083116132bd57829003601f168201915b5050505050600a600c600301546132f19190614bf7565b6002600c600401546133039190614c28565b600c6005015461350c565b565b505050565b505050565b61332483836135fc565b6133316000848484613375565b613370576040517f08c379a000000000000000000000000000000000000000000000000000000000815260040161336790614722565b60405180910390fd5b505050565b60006133968473ffffffffffffffffffffffffffffffffffffffff166137d6565b156134ff578373ffffffffffffffffffffffffffffffffffffffff1663150b7a026133bf6127c8565b8786866040518563ffffffff1660e01b81526004016133e19493929190614571565b602060405180830381600087803b1580156133fb57600080fd5b505af192505050801561342c57506040513d601f19601f820116820180604052508101906134299190613c20565b60015b6134af573d806000811461345c576040519150601f19603f3d011682016040523d82523d6000602084013e613461565b606091505b506000815114156134a7576040517f08c379a000000000000000000000000000000000000000000000000000000000815260040161349e90614722565b60405180910390fd5b805181602001fd5b63150b7a0260e01b7bffffffffffffffffffffffffffffffffffffffffffffffffffffffff1916817bffffffffffffffffffffffffffffffffffffffffffffffffffffffff191614915050613504565b600190505b949350505050565b60006007805490509050600760405180610100016040528086815260200186815260200185815260200183815260200160008152602001848152602001888152602001878152509080600181540180825580915050600190039060005260206000209060080201600090919091909150600082015181600001556020820151816001015560408201518160020155606082015181600301556080820151816004015560a0820151816005015560c08201518160060190805190602001906135d49291906137f9565b5060e08201518160070190805190602001906135f19291906137f9565b505050505050505050565b600073ffffffffffffffffffffffffffffffffffffffff168273ffffffffffffffffffffffffffffffffffffffff16141561366c576040517f08c379a000000000000000000000000000000000000000000000000000000000815260040161366390614882565b60405180910390fd5b6136758161275c565b156136b5576040517f08c379a00000000000000000000000000000000000000000000000000000000081526004016136ac90614782565b60405180910390fd5b6136c160008383613310565b6001600360008473ffffffffffffffffffffffffffffffffffffffff1673ffffffffffffffffffffffffffffffffffffffff16815260200190815260200160002060008282546137119190614ba1565b92505081905550816002600083815260200190815260200160002060006101000a81548173ffffffffffffffffffffffffffffffffffffffff021916908373ffffffffffffffffffffffffffffffffffffffff160217905550808273ffffffffffffffffffffffffffffffffffffffff16600073ffffffffffffffffffffffffffffffffffffffff167fddf252ad1be2c89b69c2b068fc378daa952ba7f163c4a11628f55a4df523b3ef60405160405180910390a46137d260008383613315565b5050565b6000808273ffffffffffffffffffffffffffffffffffffffff163b119050919050565b82805461380590614d6c565b90600052602060002090601f016020900481019282613827576000855561386e565b82601f1061384057805160ff191683800117855561386e565b8280016001018555821561386e579182015b8281111561386d578251825591602001919060010190613852565b5b50905061387b91906138fa565b5090565b6040518060c001604052806060815260200160608152602001600081526020016000815260200160008152602001600081525090565b60405180610100016040528060008152602001600081526020016000815260200160008152602001600081526020016000815260200160608152602001606081525090565b5b808211156139135760008160009055506001016138fb565b5090565b600061392a61392584614aa7565b614a82565b90508281526020810184848401111561394257600080fd5b61394d848285614d2a565b509392505050565b600061396861396384614ad8565b614a82565b90508281526020810184848401111561398057600080fd5b61398b848285614d2a565b509392505050565b6000813590506139a281615693565b92915050565b6000813590506139b7816156aa565b92915050565b6000813590506139cc816156c1565b92915050565b6000815190506139e1816156c1565b92915050565b600082601f8301126139f857600080fd5b8135613a08848260208601613917565b91505092915050565b600082601f830112613a2257600080fd5b8135613a32848260208601613955565b91505092915050565b600081359050613a4a816156d8565b92915050565b600060208284031215613a6257600080fd5b6000613a7084828501613993565b91505092915050565b60008060408385031215613a8c57600080fd5b6000613a9a85828601613993565b9250506020613aab85828601613993565b9150509250929050565b600080600060608486031215613aca57600080fd5b6000613ad886828701613993565b9350506020613ae986828701613993565b9250506040613afa86828701613a3b565b9150509250925092565b60008060008060808587031215613b1a57600080fd5b6000613b2887828801613993565b9450506020613b3987828801613993565b9350506040613b4a87828801613a3b565b925050606085013567ffffffffffffffff811115613b6757600080fd5b613b73878288016139e7565b91505092959194509250565b60008060408385031215613b9257600080fd5b6000613ba085828601613993565b9250506020613bb1858286016139a8565b9150509250929050565b60008060408385031215613bce57600080fd5b6000613bdc85828601613993565b9250506020613bed85828601613a3b565b9150509250929050565b600060208284031215613c0957600080fd5b6000613c17848285016139bd565b91505092915050565b600060208284031215613c3257600080fd5b6000613c40848285016139d2565b91505092915050565b600080600080600060a08688031215613c6157600080fd5b600086013567ffffffffffffffff811115613c7b57600080fd5b613c8788828901613a11565b955050602086013567ffffffffffffffff811115613ca457600080fd5b613cb088828901613a11565b9450506040613cc188828901613a3b565b9350506060613cd288828901613a3b565b9250506080613ce388828901613a3b565b9150509295509295909350565b600060208284031215613d0257600080fd5b6000613d1084828501613a3b565b91505092915050565b60008060408385031215613d2c57600080fd5b6000613d3a85828601613a3b565b9250506020613d4b85828601613a3b565b9150509250929050565b6000613d618383614315565b905092915050565b613d7281614cb6565b82525050565b6000613d8382614b19565b613d8d8185614b47565b935083602082028501613d9f85614b09565b8060005b85811015613ddb5784840389528151613dbc8582613d55565b9450613dc783614b3a565b925060208a01995050600181019050613da3565b50829750879550505050505092915050565b613df681614cc8565b82525050565b6000613e0782614b24565b613e118185614b58565b9350613e21818560208601614d39565b613e2a81614f05565b840191505092915050565b6000613e4082614b2f565b613e4a8185614b74565b9350613e5a818560208601614d39565b613e6381614f05565b840191505092915050565b6000613e7982614b2f565b613e838185614b85565b9350613e93818560208601614d39565b613e9c81614f05565b840191505092915050565b6000613eb282614b2f565b613ebc8185614b96565b9350613ecc818560208601614d39565b80840191505092915050565b6000613ee5600b83614b96565b9150613ef082614f16565b600b82019050919050565b6000613f08601c83614b85565b9150613f1382614f3f565b602082019050919050565b6000613f2b602883614b85565b9150613f3682614f68565b604082019050919050565b6000613f4e602083614b85565b9150613f5982614fb7565b602082019050919050565b6000613f71603283614b85565b9150613f7c82614fe0565b604082019050919050565b6000613f94602683614b85565b9150613f9f8261502f565b604082019050919050565b6000613fb7602583614b85565b9150613fc28261507e565b604082019050919050565b6000613fda601c83614b85565b9150613fe5826150cd565b602082019050919050565b6000613ffd600e83614b96565b9150614008826150f6565b600e82019050919050565b6000614020602483614b85565b915061402b8261511f565b604082019050919050565b6000614043601983614b85565b915061404e8261516e565b602082019050919050565b6000614066602c83614b85565b915061407182615197565b604082019050919050565b6000614089603883614b85565b9150614094826151e6565b604082019050919050565b60006140ac602a83614b85565b91506140b782615235565b604082019050919050565b60006140cf602983614b85565b91506140da82615284565b604082019050919050565b60006140f2602383614b85565b91506140fd826152d3565b604082019050919050565b6000614115600483614b96565b915061412082615322565b600482019050919050565b6000614138602083614b85565b91506141438261534b565b602082019050919050565b600061415b604883614b96565b915061416682615374565b604882019050919050565b600061417e602c83614b85565b9150614189826153e9565b604082019050919050565b60006141a1602083614b85565b91506141ac82615438565b602082019050919050565b60006141c4602983614b85565b91506141cf82615461565b604082019050919050565b60006141e7600a83614b96565b91506141f2826154b0565b600a82019050919050565b600061420a602083614b85565b9150614215826154d9565b602082019050919050565b600061422d602183614b85565b915061423882615502565b604082019050919050565b6000614250602083614b85565b915061425b82615551565b602082019050919050565b6000614273601d83614b96565b915061427e8261557a565b601d82019050919050565b6000614296600083614b69565b91506142a1826155a3565b600082019050919050565b60006142b9603183614b85565b91506142c4826155a6565b604082019050919050565b60006142dc603d83614b96565b91506142e7826155f5565b603d82019050919050565b60006142ff602d83614b96565b915061430a82615644565b602d82019050919050565b60006101008301600083015161432e600086018261445c565b506020830151614341602086018261445c565b506040830151614354604086018261445c565b506060830151614367606086018261445c565b50608083015161437a608086018261445c565b5060a083015161438d60a086018261445c565b5060c083015184820360c08601526143a58282613e35565b91505060e083015184820360e08601526143bf8282613e35565b9150508091505092915050565b600060c08301600083015184820360008601526143e98282613e35565b915050602083015184820360208601526144038282613e35565b9150506040830151614418604086018261445c565b50606083015161442b606086018261445c565b50608083015161443e608086018261445c565b5060a083015161445160a086018261445c565b508091505092915050565b61446581614d20565b82525050565b61447481614d20565b82525050565b6000614485826141da565b91506144918289613ea7565b915061449c82613ed8565b91506144a88288613ea7565b91506144b38261414e565b91506144bf8287613ea7565b91506144ca826142cf565b91506144d68286613ea7565b91506144e182613ff0565b91506144ed8285613ea7565b91506144f8826142f2565b91506145048284613ea7565b915061450f82614108565b9150819050979650505050505050565b600061452a82614266565b91506145368284613ea7565b915081905092915050565b600061454c82614289565b9150819050919050565b600060208201905061456b6000830184613d69565b92915050565b60006080820190506145866000830187613d69565b6145936020830186613d69565b6145a0604083018561446b565b81810360608301526145b28184613dfc565b905095945050505050565b60006060820190506145d26000830186613d69565b6145df602083018561446b565b6145ec604083018461446b565b949350505050565b6000602082019050818103600083015261460e8184613d78565b905092915050565b600060208201905061462b6000830184613ded565b92915050565b6000602082019050818103600083015261464b8184613e6e565b905092915050565b600060c082019050818103600083015261466d8189613e6e565b905081810360208301526146818188613e6e565b9050614690604083018761446b565b61469d606083018661446b565b6146aa608083018561446b565b6146b760a083018461446b565b979650505050505050565b600060208201905081810360008301526146db81613efb565b9050919050565b600060208201905081810360008301526146fb81613f1e565b9050919050565b6000602082019050818103600083015261471b81613f41565b9050919050565b6000602082019050818103600083015261473b81613f64565b9050919050565b6000602082019050818103600083015261475b81613f87565b9050919050565b6000602082019050818103600083015261477b81613faa565b9050919050565b6000602082019050818103600083015261479b81613fcd565b9050919050565b600060208201905081810360008301526147bb81614013565b9050919050565b600060208201905081810360008301526147db81614036565b9050919050565b600060208201905081810360008301526147fb81614059565b9050919050565b6000602082019050818103600083015261481b8161407c565b9050919050565b6000602082019050818103600083015261483b8161409f565b9050919050565b6000602082019050818103600083015261485b816140c2565b9050919050565b6000602082019050818103600083015261487b816140e5565b9050919050565b6000602082019050818103600083015261489b8161412b565b9050919050565b600060208201905081810360008301526148bb81614171565b9050919050565b600060208201905081810360008301526148db81614194565b9050919050565b600060208201905081810360008301526148fb816141b7565b9050919050565b6000602082019050818103600083015261491b816141fd565b9050919050565b6000602082019050818103600083015261493b81614220565b9050919050565b6000602082019050818103600083015261495b81614243565b9050919050565b6000602082019050818103600083015261497b816142ac565b9050919050565b6000602082019050818103600083015261499c81846143cc565b905092915050565b60006020820190506149b9600083018461446b565b92915050565b60006060820190506149d4600083018661446b565b6149e1602083018561446b565b6149ee604083018461446b565b949350505050565b600061010082019050614a0c600083018b61446b565b614a19602083018a61446b565b614a26604083018961446b565b614a33606083018861446b565b614a40608083018761446b565b614a4d60a083018661446b565b81810360c0830152614a5f8185613e6e565b905081810360e0830152614a738184613e6e565b90509998505050505050505050565b6000614a8c614a9d565b9050614a988282614d9e565b919050565b6000604051905090565b600067ffffffffffffffff821115614ac257614ac1614ed6565b5b614acb82614f05565b9050602081019050919050565b600067ffffffffffffffff821115614af357614af2614ed6565b5b614afc82614f05565b9050602081019050919050565b6000819050602082019050919050565b600081519050919050565b600081519050919050565b600081519050919050565b6000602082019050919050565b600082825260208201905092915050565b600082825260208201905092915050565b600081905092915050565b600082825260208201905092915050565b600082825260208201905092915050565b600081905092915050565b6000614bac82614d20565b9150614bb783614d20565b9250827fffffffffffffffffffffffffffffffffffffffffffffffffffffffffffffffff03821115614bec57614beb614e49565b5b828201905092915050565b6000614c0282614d20565b9150614c0d83614d20565b925082614c1d57614c1c614e78565b5b828204905092915050565b6000614c3382614d20565b9150614c3e83614d20565b9250817fffffffffffffffffffffffffffffffffffffffffffffffffffffffffffffffff0483118215151615614c7757614c76614e49565b5b828202905092915050565b6000614c8d82614d20565b9150614c9883614d20565b925082821015614cab57614caa614e49565b5b828203905092915050565b6000614cc182614d00565b9050919050565b60008115159050919050565b60007fffffffff0000000000000000000000000000000000000000000000000000000082169050919050565b600073ffffffffffffffffffffffffffffffffffffffff82169050919050565b6000819050919050565b82818337600083830152505050565b60005b83811015614d57578082015181840152602081019050614d3c565b83811115614d66576000848401525b50505050565b60006002820490506001821680614d8457607f821691505b60208210811415614d9857614d97614ea7565b5b50919050565b614da782614f05565b810181811067ffffffffffffffff82111715614dc657614dc5614ed6565b5b80604052505050565b6000614dda82614d20565b91507fffffffffffffffffffffffffffffffffffffffffffffffffffffffffffffffff821415614e0d57614e0c614e49565b5b600182019050919050565b6000614e2382614d20565b9150614e2e83614d20565b925082614e3e57614e3d614e78565b5b828206905092915050565b7f4e487b7100000000000000000000000000000000000000000000000000000000600052601160045260246000fd5b7f4e487b7100000000000000000000000000000000000000000000000000000000600052601260045260246000fd5b7f4e487b7100000000000000000000000000000000000000000000000000000000600052602260045260246000fd5b7f4e487b7100000000000000000000000000000000000000000000000000000000600052604160045260246000fd5b6000601f19601f8301169050919050565b7f202d2d204e465420233a20000000000000000000000000000000000000000000600082015250565b7f496e76616c6964205361676520746f2075706461746520707269636500000000600082015250565b7f41637469766520626f7373206d757374206861766520485020746f206265206160008201527f747461636b656421000000000000000000000000000000000000000000000000602082015250565b7f446964206e6f742070617920656e6f75676820746f206865616c205361676521600082015250565b7f4552433732313a207472616e7366657220746f206e6f6e20455243373231526560008201527f63656976657220696d706c656d656e7465720000000000000000000000000000602082015250565b7f4f776e61626c653a206e6577206f776e657220697320746865207a65726f206160008201527f6464726573730000000000000000000000000000000000000000000000000000602082015250565b7f4552433732313a207472616e736665722066726f6d20696e636f72726563742060008201527f6f776e6572000000000000000000000000000000000000000000000000000000602082015250565b7f4552433732313a20746f6b656e20616c7265616479206d696e74656400000000600082015250565b7f2c20226d61785f76616c7565223a000000000000000000000000000000000000600082015250565b7f4552433732313a207472616e7366657220746f20746865207a65726f2061646460008201527f7265737300000000000000000000000000000000000000000000000000000000602082015250565b7f4552433732313a20617070726f766520746f2063616c6c657200000000000000600082015250565b7f4552433732313a206f70657261746f7220717565727920666f72206e6f6e657860008201527f697374656e7420746f6b656e0000000000000000000000000000000000000000602082015250565b7f4552433732313a20617070726f76652063616c6c6572206973206e6f74206f7760008201527f6e6572206e6f7220617070726f76656420666f7220616c6c0000000000000000602082015250565b7f4552433732313a2062616c616e636520717565727920666f7220746865207a6560008201527f726f206164647265737300000000000000000000000000000000000000000000602082015250565b7f4552433732313a206f776e657220717565727920666f72206e6f6e657869737460008201527f656e7420746f6b656e0000000000000000000000000000000000000000000000602082015250565b7f4661696c656420746f20776974686472617720636f6e74726163742062616c6160008201527f6e63650000000000000000000000000000000000000000000000000000000000602082015250565b7f7d205d7d00000000000000000000000000000000000000000000000000000000600082015250565b7f4552433732313a206d696e7420746f20746865207a65726f2061646472657373600082015250565b7f222c20226465736372697074696f6e223a2022412053616765204e465420746f60008201527f20706c61792074686520696e207468652053616765766572736521222c20226960208201527f6d616765223a2022000000000000000000000000000000000000000000000000604082015250565b7f4552433732313a20617070726f76656420717565727920666f72206e6f6e657860008201527f697374656e7420746f6b656e0000000000000000000000000000000000000000602082015250565b7f4f776e61626c653a2063616c6c6572206973206e6f7420746865206f776e6572600082015250565b7f4f6e6c792053616765206f776e65722063616e20696e69746961746520626f7360008201527f732061747461636b210000000000000000000000000000000000000000000000602082015250565b7f7b226e616d65223a202200000000000000000000000000000000000000000000600082015250565b7f41747461636b6572206d757374206861766520485020746f2061747461636b21600082015250565b7f4552433732313a20617070726f76616c20746f2063757272656e74206f776e6560008201527f7200000000000000000000000000000000000000000000000000000000000000602082015250565b7f446964206e6f742070617920656e6f75676820746f206d696e74207361676521600082015250565b7f646174613a6170706c69636174696f6e2f6a736f6e3b6261736536342c000000600082015250565b50565b7f4552433732313a207472616e736665722063616c6c6572206973206e6f74206f60008201527f776e6572206e6f7220617070726f766564000000000000000000000000000000602082015250565b7f222c202261747472696275746573223a205b207b202274726169745f7479706560008201527f223a20224865616c746820506f696e7473222c202276616c7565223a20000000602082015250565b7f7d2c207b202274726169745f74797065223a202241747461636b2044616d616760008201527f65222c202276616c7565223a2000000000000000000000000000000000000000602082015250565b61569c81614cb6565b81146156a757600080fd5b50565b6156b381614cc8565b81146156be57600080fd5b50565b6156ca81614cd4565b81146156d557600080fd5b50565b6156e181614d20565b81146156ec57600080fd5b5056fe4142434445464748494a4b4c4d4e4f505152535455565758595a6162636465666768696a6b6c6d6e6f707172737475767778797a303132333435363738392b2fa2646970667358221220a9385df3837145bab231175b5f9ea420a68d05ec96f4f6e4a9f686e3acc7f29c64736f6c63430008040033",
  "linkReferences": {},
  "deployedLinkReferences": {}
}