{
  "_format": "hh-sol-artifact-1",
  "contractName": "SageGame",
  "sourceName": "contracts/SageGame.sol",
  "abi": [
    {
      "inputs": [
        {
          "internalType": "string[]",
          "name": "sageNames",
          "type": "string[]"
        },
        {
          "internalType": "string[]",
          "name": "sageImageURIs",
          "type": "string[]"
        },
        {
          "internalType": "uint256[]",
          "name": "sageHp",
          "type": "uint256[]"
        },
        {
          "internalType": "uint256[]",
          "name": "sageAttackDamage",
          "type": "uint256[]"
        }
      ],
      "stateMutability": "nonpayable",
      "type": "constructor"
    },
    {
      "anonymous": false,
      "inputs": [
        {
          "indexed": true,
          "internalType": "address",
          "name": "owner",
          "type": "address"
        },
        {
          "indexed": true,
          "internalType": "address",
          "name": "approved",
          "type": "address"
        },
        {
          "indexed": true,
          "internalType": "uint256",
          "name": "tokenId",
          "type": "uint256"
        }
      ],
      "name": "Approval",
      "type": "event"
    },
    {
      "anonymous": false,
      "inputs": [
        {
          "indexed": true,
          "internalType": "address",
          "name": "owner",
          "type": "address"
        },
        {
          "indexed": true,
          "internalType": "address",
          "name": "operator",
          "type": "address"
        },
        {
          "indexed": false,
          "internalType": "bool",
          "name": "approved",
          "type": "bool"
        }
      ],
      "name": "ApprovalForAll",
      "type": "event"
    },
    {
      "anonymous": false,
      "inputs": [
        {
          "indexed": false,
          "internalType": "uint256",
          "name": "newBossHp",
          "type": "uint256"
        },
        {
          "indexed": false,
          "internalType": "uint256",
          "name": "playerTokenId",
          "type": "uint256"
        },
        {
          "indexed": false,
          "internalType": "uint256",
          "name": "newPlayerHp",
          "type": "uint256"
        }
      ],
      "name": "AttackComplete",
      "type": "event"
    },
    {
      "anonymous": false,
      "inputs": [
        {
          "indexed": false,
          "internalType": "address",
          "name": "sender",
          "type": "address"
        },
        {
          "indexed": false,
          "internalType": "uint256",
          "name": "tokenId",
          "type": "uint256"
        },
        {
          "indexed": false,
          "internalType": "uint256",
          "name": "sageIndex",
          "type": "uint256"
        }
      ],
      "name": "SageNFTMinted",
      "type": "event"
    },
    {
      "anonymous": false,
      "inputs": [
        {
          "indexed": true,
          "internalType": "address",
          "name": "from",
          "type": "address"
        },
        {
          "indexed": true,
          "internalType": "address",
          "name": "to",
          "type": "address"
        },
        {
          "indexed": true,
          "internalType": "uint256",
          "name": "tokenId",
          "type": "uint256"
        }
      ],
      "name": "Transfer",
      "type": "event"
    },
    {
      "inputs": [],
      "name": "activeSageBoss",
      "outputs": [
        {
          "internalType": "string",
          "name": "name",
          "type": "string"
        },
        {
          "internalType": "string",
          "name": "imageURI",
          "type": "string"
        },
        {
          "internalType": "uint256",
          "name": "hp",
          "type": "uint256"
        },
        {
          "internalType": "uint256",
          "name": "maxHp",
          "type": "uint256"
        },
        {
          "internalType": "uint256",
          "name": "attackDamage",
          "type": "uint256"
        }
      ],
      "stateMutability": "view",
      "type": "function"
    },
    {
      "inputs": [
        {
          "internalType": "address",
          "name": "to",
          "type": "address"
        },
        {
          "internalType": "uint256",
          "name": "tokenId",
          "type": "uint256"
        }
      ],
      "name": "approve",
      "outputs": [],
      "stateMutability": "nonpayable",
      "type": "function"
    },
    {
      "inputs": [
        {
          "internalType": "uint256",
          "name": "tokenId",
          "type": "uint256"
        }
      ],
      "name": "attackBoss",
      "outputs": [],
      "stateMutability": "nonpayable",
      "type": "function"
    },
    {
      "inputs": [
        {
          "internalType": "address",
          "name": "owner",
          "type": "address"
        }
      ],
      "name": "balanceOf",
      "outputs": [
        {
          "internalType": "uint256",
          "name": "",
          "type": "uint256"
        }
      ],
      "stateMutability": "view",
      "type": "function"
    },
    {
      "inputs": [],
      "name": "getActiveSageBoss",
      "outputs": [
        {
          "components": [
            {
              "internalType": "string",
              "name": "name",
              "type": "string"
            },
            {
              "internalType": "string",
              "name": "imageURI",
              "type": "string"
            },
            {
              "internalType": "uint256",
              "name": "hp",
              "type": "uint256"
            },
            {
              "internalType": "uint256",
              "name": "maxHp",
              "type": "uint256"
            },
            {
              "internalType": "uint256",
              "name": "attackDamage",
              "type": "uint256"
            }
          ],
          "internalType": "struct SageBossContract.SageBoss",
          "name": "",
          "type": "tuple"
        }
      ],
      "stateMutability": "view",
      "type": "function"
    },
    {
      "inputs": [
        {
          "internalType": "uint256",
          "name": "tokenId",
          "type": "uint256"
        }
      ],
      "name": "getApproved",
      "outputs": [
        {
          "internalType": "address",
          "name": "",
          "type": "address"
        }
      ],
      "stateMutability": "view",
      "type": "function"
    },
    {
      "inputs": [],
      "name": "getOwnedSageNFTs",
      "outputs": [
        {
          "components": [
            {
              "internalType": "uint256",
              "name": "hp",
              "type": "uint256"
            },
            {
              "internalType": "uint256",
              "name": "maxHp",
              "type": "uint256"
            },
            {
              "internalType": "uint256",
              "name": "attackDamage",
              "type": "uint256"
            },
            {
              "internalType": "uint256",
              "name": "sageIndex",
              "type": "uint256"
            },
            {
              "internalType": "uint256",
              "name": "tokenId",
              "type": "uint256"
            },
            {
              "internalType": "string",
              "name": "name",
              "type": "string"
            },
            {
              "internalType": "string",
              "name": "imageURI",
              "type": "string"
            }
          ],
          "internalType": "struct SageCharacterContract.SageAttributes[]",
          "name": "",
          "type": "tuple[]"
        }
      ],
      "stateMutability": "view",
      "type": "function"
    },
    {
      "inputs": [],
      "name": "getPlayableSages",
      "outputs": [
        {
          "components": [
            {
              "internalType": "uint256",
              "name": "hp",
              "type": "uint256"
            },
            {
              "internalType": "uint256",
              "name": "maxHp",
              "type": "uint256"
            },
            {
              "internalType": "uint256",
              "name": "attackDamage",
              "type": "uint256"
            },
            {
              "internalType": "uint256",
              "name": "sageIndex",
              "type": "uint256"
            },
            {
              "internalType": "uint256",
              "name": "tokenId",
              "type": "uint256"
            },
            {
              "internalType": "string",
              "name": "name",
              "type": "string"
            },
            {
              "internalType": "string",
              "name": "imageURI",
              "type": "string"
            }
          ],
          "internalType": "struct SageCharacterContract.SageAttributes[]",
          "name": "",
          "type": "tuple[]"
        }
      ],
      "stateMutability": "view",
      "type": "function"
    },
    {
      "inputs": [
        {
          "internalType": "address",
          "name": "owner",
          "type": "address"
        },
        {
          "internalType": "address",
          "name": "operator",
          "type": "address"
        }
      ],
      "name": "isApprovedForAll",
      "outputs": [
        {
          "internalType": "bool",
          "name": "",
          "type": "bool"
        }
      ],
      "stateMutability": "view",
      "type": "function"
    },
    {
      "inputs": [
        {
          "internalType": "uint256",
          "name": "_sageIndex",
          "type": "uint256"
        }
      ],
      "name": "mintSageNft",
      "outputs": [],
      "stateMutability": "nonpayable",
      "type": "function"
    },
    {
      "inputs": [],
      "name": "name",
      "outputs": [
        {
          "internalType": "string",
          "name": "",
          "type": "string"
        }
      ],
      "stateMutability": "view",
      "type": "function"
    },
    {
      "inputs": [
        {
          "internalType": "uint256",
          "name": "tokenId",
          "type": "uint256"
        }
      ],
      "name": "ownerOf",
      "outputs": [
        {
          "internalType": "address",
          "name": "",
          "type": "address"
        }
      ],
      "stateMutability": "view",
      "type": "function"
    },
    {
      "inputs": [
        {
          "internalType": "address",
          "name": "from",
          "type": "address"
        },
        {
          "internalType": "address",
          "name": "to",
          "type": "address"
        },
        {
          "internalType": "uint256",
          "name": "tokenId",
          "type": "uint256"
        }
      ],
      "name": "safeTransferFrom",
      "outputs": [],
      "stateMutability": "nonpayable",
      "type": "function"
    },
    {
      "inputs": [
        {
          "internalType": "address",
          "name": "from",
          "type": "address"
        },
        {
          "internalType": "address",
          "name": "to",
          "type": "address"
        },
        {
          "internalType": "uint256",
          "name": "tokenId",
          "type": "uint256"
        },
        {
          "internalType": "bytes",
          "name": "_data",
          "type": "bytes"
        }
      ],
      "name": "safeTransferFrom",
      "outputs": [],
      "stateMutability": "nonpayable",
      "type": "function"
    },
    {
      "inputs": [
        {
          "internalType": "uint256",
          "name": "",
          "type": "uint256"
        }
      ],
      "name": "sageIdToAttributes",
      "outputs": [
        {
          "internalType": "uint256",
          "name": "hp",
          "type": "uint256"
        },
        {
          "internalType": "uint256",
          "name": "maxHp",
          "type": "uint256"
        },
        {
          "internalType": "uint256",
          "name": "attackDamage",
          "type": "uint256"
        },
        {
          "internalType": "uint256",
          "name": "sageIndex",
          "type": "uint256"
        },
        {
          "internalType": "uint256",
          "name": "tokenId",
          "type": "uint256"
        },
        {
          "internalType": "string",
          "name": "name",
          "type": "string"
        },
        {
          "internalType": "string",
          "name": "imageURI",
          "type": "string"
        }
      ],
      "stateMutability": "view",
      "type": "function"
    },
    {
      "inputs": [
        {
          "internalType": "uint256",
          "name": "",
          "type": "uint256"
        }
      ],
      "name": "sageIdToOwner",
      "outputs": [
        {
          "internalType": "address",
          "name": "",
          "type": "address"
        }
      ],
      "stateMutability": "view",
      "type": "function"
    },
    {
      "inputs": [
        {
          "internalType": "address",
          "name": "",
          "type": "address"
        },
        {
          "internalType": "uint256",
          "name": "",
          "type": "uint256"
        }
      ],
      "name": "sageOwnerToId",
      "outputs": [
        {
          "internalType": "uint256",
          "name": "",
          "type": "uint256"
        }
      ],
      "stateMutability": "view",
      "type": "function"
    },
    {
      "inputs": [
        {
          "internalType": "address",
          "name": "operator",
          "type": "address"
        },
        {
          "internalType": "bool",
          "name": "approved",
          "type": "bool"
        }
      ],
      "name": "setApprovalForAll",
      "outputs": [],
      "stateMutability": "nonpayable",
      "type": "function"
    },
    {
      "inputs": [
        {
          "internalType": "string",
          "name": "bossName",
          "type": "string"
        },
        {
          "internalType": "string",
          "name": "bossImageURI",
          "type": "string"
        },
        {
          "internalType": "uint256",
          "name": "bossHp",
          "type": "uint256"
        },
        {
          "internalType": "uint256",
          "name": "bossAttackDamage",
          "type": "uint256"
        }
      ],
      "name": "spawnBoss",
      "outputs": [],
      "stateMutability": "nonpayable",
      "type": "function"
    },
    {
      "inputs": [
        {
          "internalType": "bytes4",
          "name": "interfaceId",
          "type": "bytes4"
        }
      ],
      "name": "supportsInterface",
      "outputs": [
        {
          "internalType": "bool",
          "name": "",
          "type": "bool"
        }
      ],
      "stateMutability": "view",
      "type": "function"
    },
    {
      "inputs": [],
      "name": "symbol",
      "outputs": [
        {
          "internalType": "string",
          "name": "",
          "type": "string"
        }
      ],
      "stateMutability": "view",
      "type": "function"
    },
    {
      "inputs": [
        {
          "internalType": "uint256",
          "name": "_tokenId",
          "type": "uint256"
        }
      ],
      "name": "tokenURI",
      "outputs": [
        {
          "internalType": "string",
          "name": "",
          "type": "string"
        }
      ],
      "stateMutability": "view",
      "type": "function"
    },
    {
      "inputs": [
        {
          "internalType": "address",
          "name": "from",
          "type": "address"
        },
        {
          "internalType": "address",
          "name": "to",
          "type": "address"
        },
        {
          "internalType": "uint256",
          "name": "tokenId",
          "type": "uint256"
        }
      ],
      "name": "transferFrom",
      "outputs": [],
      "stateMutability": "nonpayable",
      "type": "function"
    }
  ],
  "bytecode": "0x60806040523480156200001157600080fd5b506040516200608d3803806200608d833981810160405281019062000037919062000897565b6040518060400160405280600e81526020017f2d2d546573742053616765732d2d0000000000000000000000000000000000008152506040518060400160405280600781526020017f54535453414745000000000000000000000000000000000000000000000000008152508160009080519060200190620000bb929190620005ff565b508060019080519060200190620000d4929190620005ff565b50505060005b84518110156200021357620001fc85828151811062000122577f4e487b7100000000000000000000000000000000000000000000000000000000600052603260045260246000fd5b602002602001015185838151811062000164577f4e487b7100000000000000000000000000000000000000000000000000000000600052603260045260246000fd5b6020026020010151858481518110620001a6577f4e487b7100000000000000000000000000000000000000000000000000000000600052603260045260246000fd5b6020026020010151858581518110620001e8577f4e487b7100000000000000000000000000000000000000000000000000000000600052603260045260246000fd5b60200260200101516200023560201b60201c565b6001816200020b919062000af4565b9050620000da565b506200022b600f6200051460201b62001d071760201c565b5050505062000cb5565b6000600680549050905060066040518060e0016040528085815260200185815260200184815260200183815260200160008152602001878152602001868152509080600181540180825580915050600190039060005260206000209060070201600090919091909150600082015181600001556020820151816001015560408201518160020155606082015181600301556080820151816004015560a0820151816005019080519060200190620002ee929190620005ff565b5060c08201518160060190805190602001906200030d929190620005ff565b5050506000600682815481106200034d577f4e487b7100000000000000000000000000000000000000000000000000000000600052603260045260246000fd5b90600052602060002090600702016040518060e00160405290816000820154815260200160018201548152602001600282015481526020016003820154815260200160048201548152602001600582018054620003aa9062000b91565b80601f0160208091040260200160405190810160405280929190818152602001828054620003d89062000b91565b8015620004295780601f10620003fd5761010080835404028352916020019162000429565b820191906000526020600020905b8154815290600101906020018083116200040b57829003601f168201915b50505050508152602001600682018054620004449062000b91565b80601f0160208091040260200160405190810160405280929190818152602001828054620004729062000b91565b8015620004c35780601f106200049757610100808354040283529160200191620004c3565b820191906000526020600020905b815481529060010190602001808311620004a557829003601f168201915b50505050508152505090506200050c60405180606001604052806029815260200162006064602991398260a0015183600001518460c001516200052a60201b62001d1d1760201c565b505050505050565b6001816000016000828254019250508190555050565b620005d084848484604051602401620005479493929190620009b9565b6040516020818303038152906040527f8d142cdd000000000000000000000000000000000000000000000000000000007bffffffffffffffffffffffffffffffffffffffffffffffffffffffff19166020820180517bffffffffffffffffffffffffffffffffffffffffffffffffffffffff8381831617835250505050620005d660201b60201c565b50505050565b60008151905060006a636f6e736f6c652e6c6f679050602083016000808483855afa5050505050565b8280546200060d9062000b91565b90600052602060002090601f0160209004810192826200063157600085556200067d565b82601f106200064c57805160ff19168380011785556200067d565b828001600101855582156200067d579182015b828111156200067c5782518255916020019190600101906200065f565b5b5090506200068c919062000690565b5090565b5b80821115620006ab57600081600090555060010162000691565b5090565b6000620006c6620006c08462000a44565b62000a1b565b90508083825260208201905082856020860282011115620006e657600080fd5b60005b858110156200073557815167ffffffffffffffff8111156200070a57600080fd5b80860162000719898262000853565b85526020850194506020840193505050600181019050620006e9565b5050509392505050565b600062000756620007508462000a73565b62000a1b565b905080838252602082019050828560208602820111156200077657600080fd5b60005b85811015620007aa57816200078f888262000880565b84526020840193506020830192505060018101905062000779565b5050509392505050565b6000620007cb620007c58462000aa2565b62000a1b565b905082815260208101848484011115620007e457600080fd5b620007f184828562000b5b565b509392505050565b600082601f8301126200080b57600080fd5b81516200081d848260208601620006af565b91505092915050565b600082601f8301126200083857600080fd5b81516200084a8482602086016200073f565b91505092915050565b600082601f8301126200086557600080fd5b815162000877848260208601620007b4565b91505092915050565b600081519050620008918162000c9b565b92915050565b60008060008060808587031215620008ae57600080fd5b600085015167ffffffffffffffff811115620008c957600080fd5b620008d787828801620007f9565b945050602085015167ffffffffffffffff811115620008f557600080fd5b6200090387828801620007f9565b935050604085015167ffffffffffffffff8111156200092157600080fd5b6200092f8782880162000826565b925050606085015167ffffffffffffffff8111156200094d57600080fd5b6200095b8782880162000826565b91505092959194509250565b6000620009748262000ad8565b62000980818562000ae3565b93506200099281856020860162000b5b565b6200099d8162000c8a565b840191505092915050565b620009b38162000b51565b82525050565b60006080820190508181036000830152620009d5818762000967565b90508181036020830152620009eb818662000967565b9050620009fc6040830185620009a8565b818103606083015262000a10818462000967565b905095945050505050565b600062000a2762000a3a565b905062000a35828262000bc7565b919050565b6000604051905090565b600067ffffffffffffffff82111562000a625762000a6162000c5b565b5b602082029050602081019050919050565b600067ffffffffffffffff82111562000a915762000a9062000c5b565b5b602082029050602081019050919050565b600067ffffffffffffffff82111562000ac05762000abf62000c5b565b5b62000acb8262000c8a565b9050602081019050919050565b600081519050919050565b600082825260208201905092915050565b600062000b018262000b51565b915062000b0e8362000b51565b9250827fffffffffffffffffffffffffffffffffffffffffffffffffffffffffffffffff0382111562000b465762000b4562000bfd565b5b828201905092915050565b6000819050919050565b60005b8381101562000b7b57808201518184015260208101905062000b5e565b8381111562000b8b576000848401525b50505050565b6000600282049050600182168062000baa57607f821691505b6020821081141562000bc15762000bc062000c2c565b5b50919050565b62000bd28262000c8a565b810181811067ffffffffffffffff8211171562000bf45762000bf362000c5b565b5b80604052505050565b7f4e487b7100000000000000000000000000000000000000000000000000000000600052601160045260246000fd5b7f4e487b7100000000000000000000000000000000000000000000000000000000600052602260045260246000fd5b7f4e487b7100000000000000000000000000000000000000000000000000000000600052604160045260246000fd5b6000601f19601f8301169050919050565b62000ca68162000b51565b811462000cb257600080fd5b50565b61539f8062000cc56000396000f3fe608060405234801561001057600080fd5b506004361061014d5760003560e01c80636352211e116100c3578063b88d4fde1161007c578063b88d4fde146103b8578063c87b56dd146103d4578063cb63f4a714610404578063e985e9c514610422578063edbf04c414610452578063f66adc95146104705761014d565b80636352211e146102c6578063707df965146102f657806370a082311461031857806395d89b4114610348578063a22cb46514610366578063ab6ab6ff146103825761014d565b8063095ea7b311610115578063095ea7b31461021c5780630ae74ce21461023857806314f7b045146102545780631bb2fa861461027257806323b872dd1461028e57806342842e0e146102aa5761014d565b806301ffc9a7146101525780630619f9321461018257806306fdde031461019e578063081812fc146101bc578063082c6d21146101ec575b600080fd5b61016c600480360381019061016791906139ba565b6104a0565b6040516101799190614258565b60405180910390f35b61019c60048036038101906101979190613a9f565b610582565b005b6101a66105b7565b6040516101b39190614273565b60405180910390f35b6101d660048036038101906101d19190613a9f565b610649565b6040516101e39190614198565b60405180910390f35b6102066004803603810190610201919061397e565b6106ce565b6040516102139190614633565b60405180910390f35b6102366004803603810190610231919061397e565b6106ff565b005b610252600480360381019061024d9190613a9f565b610817565b005b61025c610c8f565b6040516102699190614236565b60405180910390f35b61028c60048036038101906102879190613a0c565b610e44565b005b6102a860048036038101906102a39190613878565b611011565b005b6102c460048036038101906102bf9190613878565b611071565b005b6102e060048036038101906102db9190613a9f565b611091565b6040516102ed9190614198565b60405180910390f35b6102fe611143565b60405161030f959493929190614342565b60405180910390f35b610332600480360381019061032d9190613813565b611277565b60405161033f9190614633565b60405180910390f35b61035061132f565b60405161035d9190614273565b60405180910390f35b610380600480360381019061037b9190613942565b6113c1565b005b61039c60048036038101906103979190613a9f565b6113d7565b6040516103af9796959493929190614685565b60405180910390f35b6103d260048036038101906103cd91906138c7565b611529565b005b6103ee60048036038101906103e99190613a9f565b61158b565b6040516103fb9190614273565b60405180910390f35b61040c6117b0565b6040516104199190614611565b60405180910390f35b61043c6004803603810190610437919061383c565b61190c565b6040516104499190614258565b60405180910390f35b61045a6119a0565b6040516104679190614236565b60405180910390f35b61048a60048036038101906104859190613a9f565b611cd4565b6040516104979190614198565b60405180910390f35b60007f80ac58cd000000000000000000000000000000000000000000000000000000007bffffffffffffffffffffffffffffffffffffffffffffffffffffffff1916827bffffffffffffffffffffffffffffffffffffffffffffffffffffffff1916148061056b57507f5b5e139f000000000000000000000000000000000000000000000000000000007bffffffffffffffffffffffffffffffffffffffffffffffffffffffff1916827bffffffffffffffffffffffffffffffffffffffffffffffffffffffff1916145b8061057b575061057a82611dbf565b5b9050919050565b61058b81611e29565b6000600a6002015414156105b4576105b360016006805490506105ae91906148f7565b610817565b5b50565b6060600080546105c6906149e1565b80601f01602080910402602001604051908101604052809291908181526020018280546105f2906149e1565b801561063f5780601f106106145761010080835404028352916020019161063f565b820191906000526020600020905b81548152906001019060200180831161062257829003601f168201915b5050505050905090565b600061065482612229565b610693576040517f08c379a000000000000000000000000000000000000000000000000000000000815260040161068a90614571565b60405180910390fd5b6004600083815260200190815260200160002060009054906101000a900473ffffffffffffffffffffffffffffffffffffffff169050919050565b600960205281600052604060002081815481106106ea57600080fd5b90600052602060002001600091509150505481565b600061070a82611091565b90508073ffffffffffffffffffffffffffffffffffffffff168373ffffffffffffffffffffffffffffffffffffffff16141561077b576040517f08c379a0000000000000000000000000000000000000000000000000000000008152600401610772906145d1565b60405180910390fd5b8073ffffffffffffffffffffffffffffffffffffffff1661079a612295565b73ffffffffffffffffffffffffffffffffffffffff1614806107c957506107c8816107c3612295565b61190c565b5b610808576040517f08c379a00000000000000000000000000000000000000000000000000000000081526004016107ff906144f1565b60405180910390fd5b610812838361229d565b505050565b6000610823600f612356565b905061082f3382612364565b6040518060e0016040528060068481548110610874577f4e487b7100000000000000000000000000000000000000000000000000000000600052603260045260246000fd5b9060005260206000209060070201600001548152602001600684815481106108c5577f4e487b7100000000000000000000000000000000000000000000000000000000600052603260045260246000fd5b906000526020600020906007020160010154815260200160068481548110610916577f4e487b7100000000000000000000000000000000000000000000000000000000600052603260045260246000fd5b906000526020600020906007020160020154815260200183815260200182815260200160068481548110610973577f4e487b7100000000000000000000000000000000000000000000000000000000600052603260045260246000fd5b9060005260206000209060070201600501805461098f906149e1565b80601f01602080910402602001604051908101604052809291908181526020018280546109bb906149e1565b8015610a085780601f106109dd57610100808354040283529160200191610a08565b820191906000526020600020905b8154815290600101906020018083116109eb57829003601f168201915b5050505050815260200160068481548110610a4c577f4e487b7100000000000000000000000000000000000000000000000000000000600052603260045260246000fd5b90600052602060002090600702016006018054610a68906149e1565b80601f0160208091040260200160405190810160405280929190818152602001828054610a94906149e1565b8015610ae15780601f10610ab657610100808354040283529160200191610ae1565b820191906000526020600020905b815481529060010190602001808311610ac457829003601f168201915b505050505081525060076000838152602001908152602001600020600082015181600001556020820151816001015560408201518160020155606082015181600301556080820151816004015560a0820151816005019080519060200190610b4a9291906135cb565b5060c0820151816006019080519060200190610b679291906135cb565b50905050610b8e6040518060600160405280602e8152602001615245602e91398284612382565b336008600083815260200190815260200160002060006101000a81548173ffffffffffffffffffffffffffffffffffffffff021916908373ffffffffffffffffffffffffffffffffffffffff160217905550600960003373ffffffffffffffffffffffffffffffffffffffff1673ffffffffffffffffffffffffffffffffffffffff168152602001908152602001600020819080600181540180825580915050600190039060005260206000200160009091909190915055610c50600f611d07565b7fcc4c48dae5c18de6e5a0e3731293108c2b21721b6308fea08aff9e602b812c97338284604051610c83939291906141ff565b60405180910390a15050565b60606006805480602002602001604051908101604052809291908181526020016000905b82821015610e3b57838290600052602060002090600702016040518060e00160405290816000820154815260200160018201548152602001600282015481526020016003820154815260200160048201548152602001600582018054610d18906149e1565b80601f0160208091040260200160405190810160405280929190818152602001828054610d44906149e1565b8015610d915780601f10610d6657610100808354040283529160200191610d91565b820191906000526020600020905b815481529060010190602001808311610d7457829003601f168201915b50505050508152602001600682018054610daa906149e1565b80601f0160208091040260200160405190810160405280929190818152602001828054610dd6906149e1565b8015610e235780601f10610df857610100808354040283529160200191610e23565b820191906000526020600020905b815481529060010190602001808311610e0657829003601f168201915b50505050508152505081526020019060010190610cb3565b50505050905090565b6040518060a0016040528085815260200184815260200183815260200183815260200182815250600a6000820151816000019080519060200190610e899291906135cb565b506020820151816001019080519060200190610ea69291906135cb565b5060408201518160020155606082015181600301556080820151816004015590505061100b6040518060600160405280602a8152602001615304602a9139600a6000018054610ef4906149e1565b80601f0160208091040260200160405190810160405280929190818152602001828054610f20906149e1565b8015610f6d5780601f10610f4257610100808354040283529160200191610f6d565b820191906000526020600020905b815481529060010190602001808311610f5057829003601f168201915b5050505050600a60020154600a6001018054610f88906149e1565b80601f0160208091040260200160405190810160405280929190818152602001828054610fb4906149e1565b80156110015780601f10610fd657610100808354040283529160200191611001565b820191906000526020600020905b815481529060010190602001808311610fe457829003601f168201915b5050505050611d1d565b50505050565b61102261101c612295565b82612421565b611061576040517f08c379a0000000000000000000000000000000000000000000000000000000008152600401611058906145f1565b60405180910390fd5b61106c8383836124ff565b505050565b61108c83838360405180602001604052806000815250611529565b505050565b6000806002600084815260200190815260200160002060009054906101000a900473ffffffffffffffffffffffffffffffffffffffff169050600073ffffffffffffffffffffffffffffffffffffffff168173ffffffffffffffffffffffffffffffffffffffff16141561113a576040517f08c379a000000000000000000000000000000000000000000000000000000000815260040161113190614531565b60405180910390fd5b80915050919050565b600a806000018054611154906149e1565b80601f0160208091040260200160405190810160405280929190818152602001828054611180906149e1565b80156111cd5780601f106111a2576101008083540402835291602001916111cd565b820191906000526020600020905b8154815290600101906020018083116111b057829003601f168201915b5050505050908060010180546111e2906149e1565b80601f016020809104026020016040519081016040528092919081815260200182805461120e906149e1565b801561125b5780601f106112305761010080835404028352916020019161125b565b820191906000526020600020905b81548152906001019060200180831161123e57829003601f168201915b5050505050908060020154908060030154908060040154905085565b60008073ffffffffffffffffffffffffffffffffffffffff168273ffffffffffffffffffffffffffffffffffffffff1614156112e8576040517f08c379a00000000000000000000000000000000000000000000000000000000081526004016112df90614511565b60405180910390fd5b600360008373ffffffffffffffffffffffffffffffffffffffff1673ffffffffffffffffffffffffffffffffffffffff168152602001908152602001600020549050919050565b60606001805461133e906149e1565b80601f016020809104026020016040519081016040528092919081815260200182805461136a906149e1565b80156113b75780601f1061138c576101008083540402835291602001916113b7565b820191906000526020600020905b81548152906001019060200180831161139a57829003601f168201915b5050505050905090565b6113d36113cc612295565b8383612766565b5050565b6007602052806000526040600020600091509050806000015490806001015490806002015490806003015490806004015490806005018054611418906149e1565b80601f0160208091040260200160405190810160405280929190818152602001828054611444906149e1565b80156114915780601f1061146657610100808354040283529160200191611491565b820191906000526020600020905b81548152906001019060200180831161147457829003601f168201915b5050505050908060060180546114a6906149e1565b80601f01602080910402602001604051908101604052809291908181526020018280546114d2906149e1565b801561151f5780601f106114f45761010080835404028352916020019161151f565b820191906000526020600020905b81548152906001019060200180831161150257829003601f168201915b5050505050905087565b61153a611534612295565b83612421565b611579576040517f08c379a0000000000000000000000000000000000000000000000000000000008152600401611570906145f1565b60405180910390fd5b611585848484846128d3565b50505050565b60606000600760008481526020019081526020016000206040518060e001604052908160008201548152602001600182015481526020016002820154815260200160038201548152602001600482015481526020016005820180546115ef906149e1565b80601f016020809104026020016040519081016040528092919081815260200182805461161b906149e1565b80156116685780601f1061163d57610100808354040283529160200191611668565b820191906000526020600020905b81548152906001019060200180831161164b57829003601f168201915b50505050508152602001600682018054611681906149e1565b80601f01602080910402602001604051908101604052809291908181526020018280546116ad906149e1565b80156116fa5780601f106116cf576101008083540402835291602001916116fa565b820191906000526020600020905b8154815290600101906020018083116116dd57829003601f168201915b50505050508152505090506000611714826000015161292f565b90506000611725836020015161292f565b90506000611736846040015161292f565b9050600061177c8560a0015161174b8961292f565b8760c00151878787604051602001611768969594939291906140d1565b604051602081830303815290604052612adc565b90506000816040516020016117919190614176565b6040516020818303038152906040529050809650505050505050919050565b6117b8613651565b600a6040518060a00160405290816000820180546117d5906149e1565b80601f0160208091040260200160405190810160405280929190818152602001828054611801906149e1565b801561184e5780601f106118235761010080835404028352916020019161184e565b820191906000526020600020905b81548152906001019060200180831161183157829003601f168201915b50505050508152602001600182018054611867906149e1565b80601f0160208091040260200160405190810160405280929190818152602001828054611893906149e1565b80156118e05780601f106118b5576101008083540402835291602001916118e0565b820191906000526020600020905b8154815290600101906020018083116118c357829003601f168201915b505050505081526020016002820154815260200160038201548152602001600482015481525050905090565b6000600560008473ffffffffffffffffffffffffffffffffffffffff1673ffffffffffffffffffffffffffffffffffffffff16815260200190815260200160002060008373ffffffffffffffffffffffffffffffffffffffff1673ffffffffffffffffffffffffffffffffffffffff16815260200190815260200160002060009054906101000a900460ff16905092915050565b60606000600960003373ffffffffffffffffffffffffffffffffffffffff1673ffffffffffffffffffffffffffffffffffffffff168152602001908152602001600020805480602002602001604051908101604052809291908181526020018280548015611a2d57602002820191906000526020600020905b815481526020019060010190808311611a19575b505050505090506000815167ffffffffffffffff811115611a77577f4e487b7100000000000000000000000000000000000000000000000000000000600052604160045260246000fd5b604051908082528060200260200182016040528015611ab057816020015b611a9d613680565b815260200190600190039081611a955790505b50905060005b8251811015611ccb5760076000848381518110611afc577f4e487b7100000000000000000000000000000000000000000000000000000000600052603260045260246000fd5b602002602001015181526020019081526020016000206040518060e00160405290816000820154815260200160018201548152602001600282015481526020016003820154815260200160048201548152602001600582018054611b5f906149e1565b80601f0160208091040260200160405190810160405280929190818152602001828054611b8b906149e1565b8015611bd85780601f10611bad57610100808354040283529160200191611bd8565b820191906000526020600020905b815481529060010190602001808311611bbb57829003601f168201915b50505050508152602001600682018054611bf1906149e1565b80601f0160208091040260200160405190810160405280929190818152602001828054611c1d906149e1565b8015611c6a5780601f10611c3f57610100808354040283529160200191611c6a565b820191906000526020600020905b815481529060010190602001808311611c4d57829003601f168201915b505050505081525050828281518110611cac577f4e487b7100000000000000000000000000000000000000000000000000000000600052603260045260246000fd5b6020026020010181905250600181611cc49190614816565b9050611ab6565b50809250505090565b60086020528060005260406000206000915054906101000a900473ffffffffffffffffffffffffffffffffffffffff1681565b6001816000016000828254019250508190555050565b611db984848484604051602401611d379493929190614295565b6040516020818303038152906040527f8d142cdd000000000000000000000000000000000000000000000000000000007bffffffffffffffffffffffffffffffffffffffffffffffffffffffff19166020820180517bffffffffffffffffffffffffffffffffffffffffffffffffffffffff8381831617835250505050612c66565b50505050565b60007f01ffc9a7000000000000000000000000000000000000000000000000000000007bffffffffffffffffffffffffffffffffffffffffffffffffffffffff1916827bffffffffffffffffffffffffffffffffffffffffffffffffffffffff1916149050919050565b3373ffffffffffffffffffffffffffffffffffffffff166008600083815260200190815260200160002060009054906101000a900473ffffffffffffffffffffffffffffffffffffffff1673ffffffffffffffffffffffffffffffffffffffff1614611eca576040517f08c379a0000000000000000000000000000000000000000000000000000000008152600401611ec190614591565b60405180910390fd5b6000600760008381526020019081526020016000209050611f996040518060600160405280603c815260200161532e603c9139826005018054611f0c906149e1565b80601f0160208091040260200160405190810160405280929190818152602001828054611f38906149e1565b8015611f855780601f10611f5a57610100808354040283529160200191611f85565b820191906000526020600020905b815481529060010190602001808311611f6857829003601f168201915b505050505083600001548460020154612c8f565b6120716040518060400160405280601b81526020017f426f73732025732068617320257320485020616e642025732041440000000000815250600a6000018054611fe2906149e1565b80601f016020809104026020016040519081016040528092919081815260200182805461200e906149e1565b801561205b5780601f106120305761010080835404028352916020019161205b565b820191906000526020600020905b81548152906001019060200180831161203e57829003601f168201915b5050505050600a60020154600a60040154612c8f565b60008160000154116120b8576040517f08c379a00000000000000000000000000000000000000000000000000000000081526004016120af906145b1565b60405180910390fd5b6000600a6002015411612100576040517f08c379a00000000000000000000000000000000000000000000000000000000081526004016120f790614411565b60405180910390fd5b8060020154600a6002015411612128576000600a60020181905550612123612d31565b612147565b8060020154600a6002015461213d91906148f7565b600a600201819055505b6000600a60020154111561219457600a60040154816000015410156121755760008160000181905550612193565b600a60040154816000015461218a91906148f7565b81600001819055505b5b6121bb60405180606001604052806025815260200161522060259139600a60020154612e7a565b6121e16040518060600160405280602881526020016152dc602891398260000154612e7a565b7fa8f68fa0afad68f1577a1c5c66c297b751442bbab5e98c25f07ee510a921558c600a6002015483836000015460405161221d9392919061464e565b60405180910390a15050565b60008073ffffffffffffffffffffffffffffffffffffffff166002600084815260200190815260200160002060009054906101000a900473ffffffffffffffffffffffffffffffffffffffff1673ffffffffffffffffffffffffffffffffffffffff1614159050919050565b600033905090565b816004600083815260200190815260200160002060006101000a81548173ffffffffffffffffffffffffffffffffffffffff021916908373ffffffffffffffffffffffffffffffffffffffff160217905550808273ffffffffffffffffffffffffffffffffffffffff1661231083611091565b73ffffffffffffffffffffffffffffffffffffffff167f8c5be1e5ebec7d5bd14f71427d1e84f3dd0314c0f7b2291e5b200ac8c7c3b92560405160405180910390a45050565b600081600001549050919050565b61237e828260405180602001604052806000815250612f16565b5050565b61241c83838360405160240161239a939291906143d3565b6040516020818303038152906040527f969cdd03000000000000000000000000000000000000000000000000000000007bffffffffffffffffffffffffffffffffffffffffffffffffffffffff19166020820180517bffffffffffffffffffffffffffffffffffffffffffffffffffffffff8381831617835250505050612c66565b505050565b600061242c82612229565b61246b576040517f08c379a0000000000000000000000000000000000000000000000000000000008152600401612462906144d1565b60405180910390fd5b600061247683611091565b90508073ffffffffffffffffffffffffffffffffffffffff168473ffffffffffffffffffffffffffffffffffffffff1614806124e557508373ffffffffffffffffffffffffffffffffffffffff166124cd84610649565b73ffffffffffffffffffffffffffffffffffffffff16145b806124f657506124f5818561190c565b5b91505092915050565b8273ffffffffffffffffffffffffffffffffffffffff1661251f82611091565b73ffffffffffffffffffffffffffffffffffffffff1614612575576040517f08c379a000000000000000000000000000000000000000000000000000000000815260040161256c90614451565b60405180910390fd5b600073ffffffffffffffffffffffffffffffffffffffff168273ffffffffffffffffffffffffffffffffffffffff1614156125e5576040517f08c379a00000000000000000000000000000000000000000000000000000000081526004016125dc90614491565b60405180910390fd5b6125f0838383612f71565b6125fb60008261229d565b6001600360008573ffffffffffffffffffffffffffffffffffffffff1673ffffffffffffffffffffffffffffffffffffffff168152602001908152602001600020600082825461264b91906148f7565b925050819055506001600360008473ffffffffffffffffffffffffffffffffffffffff1673ffffffffffffffffffffffffffffffffffffffff16815260200190815260200160002060008282546126a29190614816565b92505081905550816002600083815260200190815260200160002060006101000a81548173ffffffffffffffffffffffffffffffffffffffff021916908373ffffffffffffffffffffffffffffffffffffffff160217905550808273ffffffffffffffffffffffffffffffffffffffff168473ffffffffffffffffffffffffffffffffffffffff167fddf252ad1be2c89b69c2b068fc378daa952ba7f163c4a11628f55a4df523b3ef60405160405180910390a4612761838383612f76565b505050565b8173ffffffffffffffffffffffffffffffffffffffff168373ffffffffffffffffffffffffffffffffffffffff1614156127d5576040517f08c379a00000000000000000000000000000000000000000000000000000000081526004016127cc906144b1565b60405180910390fd5b80600560008573ffffffffffffffffffffffffffffffffffffffff1673ffffffffffffffffffffffffffffffffffffffff16815260200190815260200160002060008473ffffffffffffffffffffffffffffffffffffffff1673ffffffffffffffffffffffffffffffffffffffff16815260200190815260200160002060006101000a81548160ff0219169083151502179055508173ffffffffffffffffffffffffffffffffffffffff168373ffffffffffffffffffffffffffffffffffffffff167f17307eab39ab6107e8899845ad3d59bd9653f200f220920489ca2b5937696c31836040516128c69190614258565b60405180910390a3505050565b6128de8484846124ff565b6128ea84848484612f7b565b612929576040517f08c379a000000000000000000000000000000000000000000000000000000000815260040161292090614431565b60405180910390fd5b50505050565b60606000821415612977576040518060400160405280600181526020017f30000000000000000000000000000000000000000000000000000000000000008152509050612ad7565b600082905060005b600082146129a957808061299290614a44565b915050600a826129a2919061486c565b915061297f565b60008167ffffffffffffffff8111156129eb577f4e487b7100000000000000000000000000000000000000000000000000000000600052604160045260246000fd5b6040519080825280601f01601f191660200182016040528015612a1d5781602001600182028036833780820191505090505b5090505b60008514612ad057600182612a3691906148f7565b9150600a85612a459190614a8d565b6030612a519190614816565b60f81b818381518110612a8d577f4e487b7100000000000000000000000000000000000000000000000000000000600052603260045260246000fd5b60200101907effffffffffffffffffffffffffffffffffffffffffffffffffffffffffffff1916908160001a905350600a85612ac9919061486c565b9450612a21565b8093505050505b919050565b6060600082511415612aff57604051806020016040528060008152509050612c61565b600060405180606001604052806040815260200161529c6040913990506000600360028551612b2e9190614816565b612b38919061486c565b6004612b44919061489d565b67ffffffffffffffff811115612b83577f4e487b7100000000000000000000000000000000000000000000000000000000600052604160045260246000fd5b6040519080825280601f01601f191660200182016040528015612bb55781602001600182028036833780820191505090505b509050600182016020820185865187015b80821015612c21576003820191508151603f8160121c168501518453600184019350603f81600c1c168501518453600184019350603f8160061c168501518453600184019350603f8116850151845360018401935050612bc6565b5050600386510660018114612c3d5760028114612c5057612c58565b603d6001830353603d6002830353612c58565b603d60018303535b50505080925050505b919050565b60008151905060006a636f6e736f6c652e6c6f679050602083016000808483855afa5050505050565b612d2b84848484604051602401612ca994939291906142ef565b6040516020818303038152906040527fd5cf17d0000000000000000000000000000000000000000000000000000000007bffffffffffffffffffffffffffffffffffffffffffffffffffffffff19166020820180517bffffffffffffffffffffffffffffffffffffffffffffffffffffffff8381831617835250505050612c66565b50505050565b612e78600a6000018054612d44906149e1565b80601f0160208091040260200160405190810160405280929190818152602001828054612d70906149e1565b8015612dbd5780601f10612d9257610100808354040283529160200191612dbd565b820191906000526020600020905b815481529060010190602001808311612da057829003601f168201915b5050505050600a6001018054612dd2906149e1565b80601f0160208091040260200160405190810160405280929190818152602001828054612dfe906149e1565b8015612e4b5780601f10612e2057610100808354040283529160200191612e4b565b820191906000526020600020905b815481529060010190602001808311612e2e57829003601f168201915b5050505050600a8060030154612e61919061486c565b6002600a60040154612e73919061489d565b613112565b565b612f128282604051602401612e909291906143a3565b6040516020818303038152906040527f9710a9d0000000000000000000000000000000000000000000000000000000007bffffffffffffffffffffffffffffffffffffffffffffffffffffffff19166020820180517bffffffffffffffffffffffffffffffffffffffffffffffffffffffff8381831617835250505050612c66565b5050565b612f2083836133ce565b612f2d6000848484612f7b565b612f6c576040517f08c379a0000000000000000000000000000000000000000000000000000000008152600401612f6390614431565b60405180910390fd5b505050565b505050565b505050565b6000612f9c8473ffffffffffffffffffffffffffffffffffffffff166135a8565b15613105578373ffffffffffffffffffffffffffffffffffffffff1663150b7a02612fc5612295565b8786866040518563ffffffff1660e01b8152600401612fe794939291906141b3565b602060405180830381600087803b15801561300157600080fd5b505af192505050801561303257506040513d601f19601f8201168201806040525081019061302f91906139e3565b60015b6130b5573d8060008114613062576040519150601f19603f3d011682016040523d82523d6000602084013e613067565b606091505b506000815114156130ad576040517f08c379a00000000000000000000000000000000000000000000000000000000081526004016130a490614431565b60405180910390fd5b805181602001fd5b63150b7a0260e01b7bffffffffffffffffffffffffffffffffffffffffffffffffffffffff1916817bffffffffffffffffffffffffffffffffffffffffffffffffffffffff19161491505061310a565b600190505b949350505050565b6000600680549050905060066040518060e0016040528085815260200185815260200184815260200183815260200160008152602001878152602001868152509080600181540180825580915050600190039060005260206000209060070201600090919091909150600082015181600001556020820151816001015560408201518160020155606082015181600301556080820151816004015560a08201518160050190805190602001906131c99291906135cb565b5060c08201518160060190805190602001906131e69291906135cb565b505050600060068281548110613225577f4e487b7100000000000000000000000000000000000000000000000000000000600052603260045260246000fd5b90600052602060002090600702016040518060e00160405290816000820154815260200160018201548152602001600282015481526020016003820154815260200160048201548152602001600582018054613280906149e1565b80601f01602080910402602001604051908101604052809291908181526020018280546132ac906149e1565b80156132f95780601f106132ce576101008083540402835291602001916132f9565b820191906000526020600020905b8154815290600101906020018083116132dc57829003601f168201915b50505050508152602001600682018054613312906149e1565b80601f016020809104026020016040519081016040528092919081815260200182805461333e906149e1565b801561338b5780601f106133605761010080835404028352916020019161338b565b820191906000526020600020905b81548152906001019060200180831161336e57829003601f168201915b50505050508152505090506133c6604051806060016040528060298152602001615273602991398260a0015183600001518460c00151611d1d565b505050505050565b600073ffffffffffffffffffffffffffffffffffffffff168273ffffffffffffffffffffffffffffffffffffffff16141561343e576040517f08c379a000000000000000000000000000000000000000000000000000000000815260040161343590614551565b60405180910390fd5b61344781612229565b15613487576040517f08c379a000000000000000000000000000000000000000000000000000000000815260040161347e90614471565b60405180910390fd5b61349360008383612f71565b6001600360008473ffffffffffffffffffffffffffffffffffffffff1673ffffffffffffffffffffffffffffffffffffffff16815260200190815260200160002060008282546134e39190614816565b92505081905550816002600083815260200190815260200160002060006101000a81548173ffffffffffffffffffffffffffffffffffffffff021916908373ffffffffffffffffffffffffffffffffffffffff160217905550808273ffffffffffffffffffffffffffffffffffffffff16600073ffffffffffffffffffffffffffffffffffffffff167fddf252ad1be2c89b69c2b068fc378daa952ba7f163c4a11628f55a4df523b3ef60405160405180910390a46135a460008383612f76565b5050565b6000808273ffffffffffffffffffffffffffffffffffffffff163b119050919050565b8280546135d7906149e1565b90600052602060002090601f0160209004810192826135f95760008555613640565b82601f1061361257805160ff1916838001178555613640565b82800160010185558215613640579182015b8281111561363f578251825591602001919060010190613624565b5b50905061364d91906136bd565b5090565b6040518060a0016040528060608152602001606081526020016000815260200160008152602001600081525090565b6040518060e00160405280600081526020016000815260200160008152602001600081526020016000815260200160608152602001606081525090565b5b808211156136d65760008160009055506001016136be565b5090565b60006136ed6136e884614727565b614702565b90508281526020810184848401111561370557600080fd5b61371084828561499f565b509392505050565b600061372b61372684614758565b614702565b90508281526020810184848401111561374357600080fd5b61374e84828561499f565b509392505050565b600081359050613765816151c3565b92915050565b60008135905061377a816151da565b92915050565b60008135905061378f816151f1565b92915050565b6000815190506137a4816151f1565b92915050565b600082601f8301126137bb57600080fd5b81356137cb8482602086016136da565b91505092915050565b600082601f8301126137e557600080fd5b81356137f5848260208601613718565b91505092915050565b60008135905061380d81615208565b92915050565b60006020828403121561382557600080fd5b600061383384828501613756565b91505092915050565b6000806040838503121561384f57600080fd5b600061385d85828601613756565b925050602061386e85828601613756565b9150509250929050565b60008060006060848603121561388d57600080fd5b600061389b86828701613756565b93505060206138ac86828701613756565b92505060406138bd868287016137fe565b9150509250925092565b600080600080608085870312156138dd57600080fd5b60006138eb87828801613756565b94505060206138fc87828801613756565b935050604061390d878288016137fe565b925050606085013567ffffffffffffffff81111561392a57600080fd5b613936878288016137aa565b91505092959194509250565b6000806040838503121561395557600080fd5b600061396385828601613756565b92505060206139748582860161376b565b9150509250929050565b6000806040838503121561399157600080fd5b600061399f85828601613756565b92505060206139b0858286016137fe565b9150509250929050565b6000602082840312156139cc57600080fd5b60006139da84828501613780565b91505092915050565b6000602082840312156139f557600080fd5b6000613a0384828501613795565b91505092915050565b60008060008060808587031215613a2257600080fd5b600085013567ffffffffffffffff811115613a3c57600080fd5b613a48878288016137d4565b945050602085013567ffffffffffffffff811115613a6557600080fd5b613a71878288016137d4565b9350506040613a82878288016137fe565b9250506060613a93878288016137fe565b91505092959194509250565b600060208284031215613ab157600080fd5b6000613abf848285016137fe565b91505092915050565b6000613ad48383613f93565b905092915050565b613ae58161492b565b82525050565b6000613af682614799565b613b0081856147c7565b935083602082028501613b1285614789565b8060005b85811015613b4e5784840389528151613b2f8582613ac8565b9450613b3a836147ba565b925060208a01995050600181019050613b16565b50829750879550505050505092915050565b613b698161493d565b82525050565b6000613b7a826147a4565b613b8481856147d8565b9350613b948185602086016149ae565b613b9d81614b7a565b840191505092915050565b6000613bb3826147af565b613bbd81856147e9565b9350613bcd8185602086016149ae565b613bd681614b7a565b840191505092915050565b6000613bec826147af565b613bf681856147fa565b9350613c068185602086016149ae565b613c0f81614b7a565b840191505092915050565b6000613c25826147af565b613c2f818561480b565b9350613c3f8185602086016149ae565b80840191505092915050565b6000613c58600b8361480b565b9150613c6382614b8b565b600b82019050919050565b6000613c7b6028836147fa565b9150613c8682614bb4565b604082019050919050565b6000613c9e6032836147fa565b9150613ca982614c03565b604082019050919050565b6000613cc16025836147fa565b9150613ccc82614c52565b604082019050919050565b6000613ce4601c836147fa565b9150613cef82614ca1565b602082019050919050565b6000613d07600e8361480b565b9150613d1282614cca565b600e82019050919050565b6000613d2a6024836147fa565b9150613d3582614cf3565b604082019050919050565b6000613d4d6019836147fa565b9150613d5882614d42565b602082019050919050565b6000613d70602c836147fa565b9150613d7b82614d6b565b604082019050919050565b6000613d936038836147fa565b9150613d9e82614dba565b604082019050919050565b6000613db6602a836147fa565b9150613dc182614e09565b604082019050919050565b6000613dd96029836147fa565b9150613de482614e58565b604082019050919050565b6000613dfc60048361480b565b9150613e0782614ea7565b600482019050919050565b6000613e1f6020836147fa565b9150613e2a82614ed0565b602082019050919050565b6000613e4260488361480b565b9150613e4d82614ef9565b604882019050919050565b6000613e65602c836147fa565b9150613e7082614f6e565b604082019050919050565b6000613e886029836147fa565b9150613e9382614fbd565b604082019050919050565b6000613eab600a8361480b565b9150613eb68261500c565b600a82019050919050565b6000613ece6020836147fa565b9150613ed982615035565b602082019050919050565b6000613ef16021836147fa565b9150613efc8261505e565b604082019050919050565b6000613f14601d8361480b565b9150613f1f826150ad565b601d82019050919050565b6000613f376031836147fa565b9150613f42826150d6565b604082019050919050565b6000613f5a603d8361480b565b9150613f6582615125565b603d82019050919050565b6000613f7d602d8361480b565b9150613f8882615174565b602d82019050919050565b600060e083016000830151613fab60008601826140b3565b506020830151613fbe60208601826140b3565b506040830151613fd160408601826140b3565b506060830151613fe460608601826140b3565b506080830151613ff760808601826140b3565b5060a083015184820360a086015261400f8282613ba8565b91505060c083015184820360c08601526140298282613ba8565b9150508091505092915050565b600060a08301600083015184820360008601526140538282613ba8565b9150506020830151848203602086015261406d8282613ba8565b915050604083015161408260408601826140b3565b50606083015161409560608601826140b3565b5060808301516140a860808601826140b3565b508091505092915050565b6140bc81614995565b82525050565b6140cb81614995565b82525050565b60006140dc82613e9e565b91506140e88289613c1a565b91506140f382613c4b565b91506140ff8288613c1a565b915061410a82613e35565b91506141168287613c1a565b915061412182613f4d565b915061412d8286613c1a565b915061413882613cfa565b91506141448285613c1a565b915061414f82613f70565b915061415b8284613c1a565b915061416682613def565b9150819050979650505050505050565b600061418182613f07565b915061418d8284613c1a565b915081905092915050565b60006020820190506141ad6000830184613adc565b92915050565b60006080820190506141c86000830187613adc565b6141d56020830186613adc565b6141e260408301856140c2565b81810360608301526141f48184613b6f565b905095945050505050565b60006060820190506142146000830186613adc565b61422160208301856140c2565b61422e60408301846140c2565b949350505050565b600060208201905081810360008301526142508184613aeb565b905092915050565b600060208201905061426d6000830184613b60565b92915050565b6000602082019050818103600083015261428d8184613be1565b905092915050565b600060808201905081810360008301526142af8187613be1565b905081810360208301526142c38186613be1565b90506142d260408301856140c2565b81810360608301526142e48184613be1565b905095945050505050565b600060808201905081810360008301526143098187613be1565b9050818103602083015261431d8186613be1565b905061432c60408301856140c2565b61433960608301846140c2565b95945050505050565b600060a082019050818103600083015261435c8188613be1565b905081810360208301526143708187613be1565b905061437f60408301866140c2565b61438c60608301856140c2565b61439960808301846140c2565b9695505050505050565b600060408201905081810360008301526143bd8185613be1565b90506143cc60208301846140c2565b9392505050565b600060608201905081810360008301526143ed8186613be1565b90506143fc60208301856140c2565b61440960408301846140c2565b949350505050565b6000602082019050818103600083015261442a81613c6e565b9050919050565b6000602082019050818103600083015261444a81613c91565b9050919050565b6000602082019050818103600083015261446a81613cb4565b9050919050565b6000602082019050818103600083015261448a81613cd7565b9050919050565b600060208201905081810360008301526144aa81613d1d565b9050919050565b600060208201905081810360008301526144ca81613d40565b9050919050565b600060208201905081810360008301526144ea81613d63565b9050919050565b6000602082019050818103600083015261450a81613d86565b9050919050565b6000602082019050818103600083015261452a81613da9565b9050919050565b6000602082019050818103600083015261454a81613dcc565b9050919050565b6000602082019050818103600083015261456a81613e12565b9050919050565b6000602082019050818103600083015261458a81613e58565b9050919050565b600060208201905081810360008301526145aa81613e7b565b9050919050565b600060208201905081810360008301526145ca81613ec1565b9050919050565b600060208201905081810360008301526145ea81613ee4565b9050919050565b6000602082019050818103600083015261460a81613f2a565b9050919050565b6000602082019050818103600083015261462b8184614036565b905092915050565b600060208201905061464860008301846140c2565b92915050565b600060608201905061466360008301866140c2565b61467060208301856140c2565b61467d60408301846140c2565b949350505050565b600060e08201905061469a600083018a6140c2565b6146a760208301896140c2565b6146b460408301886140c2565b6146c160608301876140c2565b6146ce60808301866140c2565b81810360a08301526146e08185613be1565b905081810360c08301526146f48184613be1565b905098975050505050505050565b600061470c61471d565b90506147188282614a13565b919050565b6000604051905090565b600067ffffffffffffffff82111561474257614741614b4b565b5b61474b82614b7a565b9050602081019050919050565b600067ffffffffffffffff82111561477357614772614b4b565b5b61477c82614b7a565b9050602081019050919050565b6000819050602082019050919050565b600081519050919050565b600081519050919050565b600081519050919050565b6000602082019050919050565b600082825260208201905092915050565b600082825260208201905092915050565b600082825260208201905092915050565b600082825260208201905092915050565b600081905092915050565b600061482182614995565b915061482c83614995565b9250827fffffffffffffffffffffffffffffffffffffffffffffffffffffffffffffffff0382111561486157614860614abe565b5b828201905092915050565b600061487782614995565b915061488283614995565b92508261489257614891614aed565b5b828204905092915050565b60006148a882614995565b91506148b383614995565b9250817fffffffffffffffffffffffffffffffffffffffffffffffffffffffffffffffff04831182151516156148ec576148eb614abe565b5b828202905092915050565b600061490282614995565b915061490d83614995565b9250828210156149205761491f614abe565b5b828203905092915050565b600061493682614975565b9050919050565b60008115159050919050565b60007fffffffff0000000000000000000000000000000000000000000000000000000082169050919050565b600073ffffffffffffffffffffffffffffffffffffffff82169050919050565b6000819050919050565b82818337600083830152505050565b60005b838110156149cc5780820151818401526020810190506149b1565b838111156149db576000848401525b50505050565b600060028204905060018216806149f957607f821691505b60208210811415614a0d57614a0c614b1c565b5b50919050565b614a1c82614b7a565b810181811067ffffffffffffffff82111715614a3b57614a3a614b4b565b5b80604052505050565b6000614a4f82614995565b91507fffffffffffffffffffffffffffffffffffffffffffffffffffffffffffffffff821415614a8257614a81614abe565b5b600182019050919050565b6000614a9882614995565b9150614aa383614995565b925082614ab357614ab2614aed565b5b828206905092915050565b7f4e487b7100000000000000000000000000000000000000000000000000000000600052601160045260246000fd5b7f4e487b7100000000000000000000000000000000000000000000000000000000600052601260045260246000fd5b7f4e487b7100000000000000000000000000000000000000000000000000000000600052602260045260246000fd5b7f4e487b7100000000000000000000000000000000000000000000000000000000600052604160045260246000fd5b6000601f19601f8301169050919050565b7f202d2d204e465420233a20000000000000000000000000000000000000000000600082015250565b7f41637469766520626f7373206d757374206861766520485020746f206265206160008201527f747461636b656421000000000000000000000000000000000000000000000000602082015250565b7f4552433732313a207472616e7366657220746f206e6f6e20455243373231526560008201527f63656976657220696d706c656d656e7465720000000000000000000000000000602082015250565b7f4552433732313a207472616e736665722066726f6d20696e636f72726563742060008201527f6f776e6572000000000000000000000000000000000000000000000000000000602082015250565b7f4552433732313a20746f6b656e20616c7265616479206d696e74656400000000600082015250565b7f2c20226d61785f76616c7565223a000000000000000000000000000000000000600082015250565b7f4552433732313a207472616e7366657220746f20746865207a65726f2061646460008201527f7265737300000000000000000000000000000000000000000000000000000000602082015250565b7f4552433732313a20617070726f766520746f2063616c6c657200000000000000600082015250565b7f4552433732313a206f70657261746f7220717565727920666f72206e6f6e657860008201527f697374656e7420746f6b656e0000000000000000000000000000000000000000602082015250565b7f4552433732313a20617070726f76652063616c6c6572206973206e6f74206f7760008201527f6e6572206e6f7220617070726f76656420666f7220616c6c0000000000000000602082015250565b7f4552433732313a2062616c616e636520717565727920666f7220746865207a6560008201527f726f206164647265737300000000000000000000000000000000000000000000602082015250565b7f4552433732313a206f776e657220717565727920666f72206e6f6e657869737460008201527f656e7420746f6b656e0000000000000000000000000000000000000000000000602082015250565b7f7d205d7d00000000000000000000000000000000000000000000000000000000600082015250565b7f4552433732313a206d696e7420746f20746865207a65726f2061646472657373600082015250565b7f222c20226465736372697074696f6e223a2022412053616765204e465420746f60008201527f20706c61792074686520696e207468652053616765766572736521222c20226960208201527f6d616765223a2022000000000000000000000000000000000000000000000000604082015250565b7f4552433732313a20617070726f76656420717565727920666f72206e6f6e657860008201527f697374656e7420746f6b656e0000000000000000000000000000000000000000602082015250565b7f4f6e6c792053616765206f776e65722063616e20696e69746961746520626f7360008201527f732061747461636b210000000000000000000000000000000000000000000000602082015250565b7f7b226e616d65223a202200000000000000000000000000000000000000000000600082015250565b7f41747461636b6572206d757374206861766520485020746f2061747461636b21600082015250565b7f4552433732313a20617070726f76616c20746f2063757272656e74206f776e6560008201527f7200000000000000000000000000000000000000000000000000000000000000602082015250565b7f646174613a6170706c69636174696f6e2f6a736f6e3b6261736536342c000000600082015250565b7f4552433732313a207472616e736665722063616c6c6572206973206e6f74206f60008201527f776e6572206e6f7220617070726f766564000000000000000000000000000000602082015250565b7f222c202261747472696275746573223a205b207b202274726169745f7479706560008201527f223a20224865616c746820506f696e7473222c202276616c7565223a20000000602082015250565b7f7d2c207b202274726169745f74797065223a202241747461636b2044616d616760008201527f65222c202276616c7565223a2000000000000000000000000000000000000000602082015250565b6151cc8161492b565b81146151d757600080fd5b50565b6151e38161493d565b81146151ee57600080fd5b50565b6151fa81614949565b811461520557600080fd5b50565b61521181614995565b811461521c57600080fd5b5056fe506c617965722061747461636b656420626f73732e204e657720626f73732068703a2025734d696e7465642053616765204e465420772f20746f6b656e496420257320616e642073616765496e64657820257346696e697368656420696e697469616c697a696e6720257320772f2048502025732c20696d672025734142434445464748494a4b4c4d4e4f505152535455565758595a6162636465666768696a6b6c6d6e6f707172737475767778797a303132333435363738392b2f426f73732061747461636b656420706c617965722e204e657720706c617965722068703a2025730a446f6e6520696e697469616c697a696e6720626f737320257320772f2048502025732c20696d672025730a506c6179657220772f206368617261637465722025732061626f757420746f2061747461636b2e2048617320257320485020616e64202573204144a2646970667358221220be6562827008f35640bd89a30326f988058c8543ff0b50a084982d585be8a69e64736f6c6343000804003346696e697368656420696e697469616c697a696e6720257320772f2048502025732c20696d67202573",
  "linkReferences": {},
  "deployedLinkReferences": {}
}